{
  "contractName": "Bear",
  "abi": [
    {
      "inputs": [],
      "stateMutability": "nonpayable",
      "type": "constructor"
    },
    {
      "anonymous": false,
      "inputs": [
        {
          "indexed": true,
          "internalType": "address",
          "name": "owner",
          "type": "address"
        },
        {
          "indexed": true,
          "internalType": "address",
          "name": "approved",
          "type": "address"
        },
        {
          "indexed": true,
          "internalType": "uint256",
          "name": "tokenId",
          "type": "uint256"
        }
      ],
      "name": "Approval",
      "type": "event"
    },
    {
      "anonymous": false,
      "inputs": [
        {
          "indexed": true,
          "internalType": "address",
          "name": "owner",
          "type": "address"
        },
        {
          "indexed": true,
          "internalType": "address",
          "name": "operator",
          "type": "address"
        },
        {
          "indexed": false,
          "internalType": "bool",
          "name": "approved",
          "type": "bool"
        }
      ],
      "name": "ApprovalForAll",
      "type": "event"
    },
    {
      "anonymous": false,
      "inputs": [
        {
          "indexed": true,
          "internalType": "address",
          "name": "previousOwner",
          "type": "address"
        },
        {
          "indexed": true,
          "internalType": "address",
          "name": "newOwner",
          "type": "address"
        }
      ],
      "name": "OwnershipTransferred",
      "type": "event"
    },
    {
      "anonymous": false,
      "inputs": [
        {
          "indexed": true,
          "internalType": "address",
          "name": "from",
          "type": "address"
        },
        {
          "indexed": true,
          "internalType": "address",
          "name": "to",
          "type": "address"
        },
        {
          "indexed": true,
          "internalType": "uint256",
          "name": "tokenId",
          "type": "uint256"
        }
      ],
      "name": "Transfer",
      "type": "event"
    },
    {
      "inputs": [
        {
          "internalType": "address",
          "name": "to",
          "type": "address"
        },
        {
          "internalType": "uint256",
          "name": "tokenId",
          "type": "uint256"
        }
      ],
      "name": "approve",
      "outputs": [],
      "stateMutability": "nonpayable",
      "type": "function"
    },
    {
      "inputs": [
        {
          "internalType": "address",
          "name": "owner",
          "type": "address"
        }
      ],
      "name": "balanceOf",
      "outputs": [
        {
          "internalType": "uint256",
          "name": "",
          "type": "uint256"
        }
      ],
      "stateMutability": "view",
      "type": "function"
    },
    {
      "inputs": [],
      "name": "baseURI",
      "outputs": [
        {
          "internalType": "string",
          "name": "",
          "type": "string"
        }
      ],
      "stateMutability": "view",
      "type": "function"
    },
    {
      "inputs": [
        {
          "internalType": "uint256",
          "name": "tokenId",
          "type": "uint256"
        }
      ],
      "name": "getApproved",
      "outputs": [
        {
          "internalType": "address",
          "name": "",
          "type": "address"
        }
      ],
      "stateMutability": "view",
      "type": "function"
    },
    {
      "inputs": [
        {
          "internalType": "address",
          "name": "owner",
          "type": "address"
        },
        {
          "internalType": "address",
          "name": "operator",
          "type": "address"
        }
      ],
      "name": "isApprovedForAll",
      "outputs": [
        {
          "internalType": "bool",
          "name": "",
          "type": "bool"
        }
      ],
      "stateMutability": "view",
      "type": "function"
    },
    {
      "inputs": [],
      "name": "name",
      "outputs": [
        {
          "internalType": "string",
          "name": "",
          "type": "string"
        }
      ],
      "stateMutability": "view",
      "type": "function"
    },
    {
      "inputs": [],
      "name": "owner",
      "outputs": [
        {
          "internalType": "address",
          "name": "",
          "type": "address"
        }
      ],
      "stateMutability": "view",
      "type": "function"
    },
    {
      "inputs": [
        {
          "internalType": "uint256",
          "name": "tokenId",
          "type": "uint256"
        }
      ],
      "name": "ownerOf",
      "outputs": [
        {
          "internalType": "address",
          "name": "",
          "type": "address"
        }
      ],
      "stateMutability": "view",
      "type": "function"
    },
    {
      "inputs": [],
      "name": "renounceOwnership",
      "outputs": [],
      "stateMutability": "nonpayable",
      "type": "function"
    },
    {
      "inputs": [
        {
          "internalType": "address",
          "name": "from",
          "type": "address"
        },
        {
          "internalType": "address",
          "name": "to",
          "type": "address"
        },
        {
          "internalType": "uint256",
          "name": "tokenId",
          "type": "uint256"
        }
      ],
      "name": "safeTransferFrom",
      "outputs": [],
      "stateMutability": "nonpayable",
      "type": "function"
    },
    {
      "inputs": [
        {
          "internalType": "address",
          "name": "from",
          "type": "address"
        },
        {
          "internalType": "address",
          "name": "to",
          "type": "address"
        },
        {
          "internalType": "uint256",
          "name": "tokenId",
          "type": "uint256"
        },
        {
          "internalType": "bytes",
          "name": "_data",
          "type": "bytes"
        }
      ],
      "name": "safeTransferFrom",
      "outputs": [],
      "stateMutability": "nonpayable",
      "type": "function"
    },
    {
      "inputs": [
        {
          "internalType": "address",
          "name": "operator",
          "type": "address"
        },
        {
          "internalType": "bool",
          "name": "approved",
          "type": "bool"
        }
      ],
      "name": "setApprovalForAll",
      "outputs": [],
      "stateMutability": "nonpayable",
      "type": "function"
    },
    {
      "inputs": [
        {
          "internalType": "bytes4",
          "name": "interfaceId",
          "type": "bytes4"
        }
      ],
      "name": "supportsInterface",
      "outputs": [
        {
          "internalType": "bool",
          "name": "",
          "type": "bool"
        }
      ],
      "stateMutability": "view",
      "type": "function"
    },
    {
      "inputs": [],
      "name": "symbol",
      "outputs": [
        {
          "internalType": "string",
          "name": "",
          "type": "string"
        }
      ],
      "stateMutability": "view",
      "type": "function"
    },
    {
      "inputs": [
        {
          "internalType": "uint256",
          "name": "index",
          "type": "uint256"
        }
      ],
      "name": "tokenByIndex",
      "outputs": [
        {
          "internalType": "uint256",
          "name": "",
          "type": "uint256"
        }
      ],
      "stateMutability": "view",
      "type": "function"
    },
    {
      "inputs": [
        {
          "internalType": "address",
          "name": "owner",
          "type": "address"
        },
        {
          "internalType": "uint256",
          "name": "index",
          "type": "uint256"
        }
      ],
      "name": "tokenOfOwnerByIndex",
      "outputs": [
        {
          "internalType": "uint256",
          "name": "",
          "type": "uint256"
        }
      ],
      "stateMutability": "view",
      "type": "function"
    },
    {
      "inputs": [
        {
          "internalType": "uint256",
          "name": "tokenId",
          "type": "uint256"
        }
      ],
      "name": "tokenURI",
      "outputs": [
        {
          "internalType": "string",
          "name": "",
          "type": "string"
        }
      ],
      "stateMutability": "view",
      "type": "function"
    },
    {
      "inputs": [],
      "name": "totalSupply",
      "outputs": [
        {
          "internalType": "uint256",
          "name": "",
          "type": "uint256"
        }
      ],
      "stateMutability": "view",
      "type": "function"
    },
    {
      "inputs": [
        {
          "internalType": "address",
          "name": "from",
          "type": "address"
        },
        {
          "internalType": "address",
          "name": "to",
          "type": "address"
        },
        {
          "internalType": "uint256",
          "name": "tokenId",
          "type": "uint256"
        }
      ],
      "name": "transferFrom",
      "outputs": [],
      "stateMutability": "nonpayable",
      "type": "function"
    },
    {
      "inputs": [
        {
          "internalType": "address",
          "name": "newOwner",
          "type": "address"
        }
      ],
      "name": "transferOwnership",
      "outputs": [],
      "stateMutability": "nonpayable",
      "type": "function"
    },
    {
      "inputs": [],
      "name": "startPreSale",
      "outputs": [],
      "stateMutability": "nonpayable",
      "type": "function"
    },
    {
      "inputs": [],
      "name": "stopPreSale",
      "outputs": [],
      "stateMutability": "nonpayable",
      "type": "function"
    },
    {
      "inputs": [
        {
          "internalType": "string",
          "name": "immutableIPFSBucket_",
          "type": "string"
        }
      ],
      "name": "setImmutableIPFSBucket",
      "outputs": [],
      "stateMutability": "nonpayable",
      "type": "function"
    },
    {
      "inputs": [
        {
          "internalType": "string",
          "name": "mutableIPFSBucket_",
          "type": "string"
        }
      ],
      "name": "setMutableIPFSBucket",
      "outputs": [],
      "stateMutability": "nonpayable",
      "type": "function"
    },
    {
      "inputs": [],
      "name": "getCurrentNFTAmount",
      "outputs": [
        {
          "internalType": "uint256",
          "name": "",
          "type": "uint256"
        }
      ],
      "stateMutability": "nonpayable",
      "type": "function"
    },
    {
      "inputs": [],
      "name": "getPreSaleNFTAmount",
      "outputs": [
        {
          "internalType": "uint256",
          "name": "",
          "type": "uint256"
        }
      ],
      "stateMutability": "nonpayable",
      "type": "function"
    },
    {
      "inputs": [
        {
          "internalType": "string",
          "name": "baseURI",
          "type": "string"
        }
      ],
      "name": "setBaseURI",
      "outputs": [],
      "stateMutability": "nonpayable",
      "type": "function"
    },
    {
      "inputs": [],
      "name": "_baseURI",
      "outputs": [
        {
          "internalType": "string",
          "name": "",
          "type": "string"
        }
      ],
      "stateMutability": "view",
      "type": "function"
    },
    {
      "inputs": [
        {
          "internalType": "string",
          "name": "tokenURI",
          "type": "string"
        }
      ],
      "name": "claim",
      "outputs": [
        {
          "internalType": "uint256",
          "name": "",
          "type": "uint256"
        }
      ],
      "stateMutability": "payable",
      "type": "function"
    },
    {
      "inputs": [
        {
          "internalType": "string",
          "name": "tokenURI",
          "type": "string"
        }
      ],
      "name": "claim_2",
      "outputs": [
        {
          "internalType": "uint256[]",
          "name": "",
          "type": "uint256[]"
        }
      ],
      "stateMutability": "payable",
      "type": "function"
    },
    {
      "inputs": [
        {
          "internalType": "string",
          "name": "tokenURI",
          "type": "string"
        }
      ],
      "name": "claim_5",
      "outputs": [
        {
          "internalType": "uint256[]",
          "name": "",
          "type": "uint256[]"
        }
      ],
      "stateMutability": "payable",
      "type": "function"
    },
    {
      "inputs": [
        {
          "internalType": "string",
          "name": "tokenURI",
          "type": "string"
        }
      ],
      "name": "claim_10",
      "outputs": [
        {
          "internalType": "uint256[]",
          "name": "",
          "type": "uint256[]"
        }
      ],
      "stateMutability": "payable",
      "type": "function"
    },
    {
      "inputs": [
        {
          "internalType": "string",
          "name": "tokenURI",
          "type": "string"
        }
      ],
      "name": "claim_20",
      "outputs": [
        {
          "internalType": "uint256[]",
          "name": "",
          "type": "uint256[]"
        }
      ],
      "stateMutability": "payable",
      "type": "function"
    },
    {
      "inputs": [
        {
          "internalType": "string",
          "name": "tokenURI",
          "type": "string"
        }
      ],
      "name": "claim_10_GiveAway",
      "outputs": [
        {
          "internalType": "uint256[]",
          "name": "",
          "type": "uint256[]"
        }
      ],
      "stateMutability": "nonpayable",
      "type": "function"
    }
  ],
  "bytecode": "0x60806040526000600d556078600e556103e8600f556127106010553480156200002757600080fd5b506040518060400160405280600a81526020017f506f6c61722050616c73000000000000000000000000000000000000000000008152506040518060400160405280600481526020017f50414c53000000000000000000000000000000000000000000000000000000008152506000620000a66200022460201b60201c565b9050806000806101000a81548173ffffffffffffffffffffffffffffffffffffffff021916908373ffffffffffffffffffffffffffffffffffffffff1602179055508073ffffffffffffffffffffffffffffffffffffffff16600073ffffffffffffffffffffffffffffffffffffffff167f8be0079c531659141344cd1fd0a4f28419497f9722a3daafe3b4186f6b6457e060405160405180910390a3506200015c6301ffc9a760e01b6200022c60201b60201c565b81600790805190602001906200017492919062000505565b5080600890805190602001906200018d92919062000505565b50620001a66380ac58cd60e01b6200022c60201b60201c565b620001be635b5e139f60e01b6200022c60201b60201c565b620001d663780e9d6360e01b6200022c60201b60201c565b50506200021e6040518060400160405280600781526020017f697066733a2f2f000000000000000000000000000000000000000000000000008152506200033560201b60201c565b620005ab565b600033905090565b63ffffffff60e01b817bffffffffffffffffffffffffffffffffffffffffffffffffffffffff19161415620002c9576040517f08c379a000000000000000000000000000000000000000000000000000000000815260040180806020018281038252601c8152602001807f4552433136353a20696e76616c696420696e746572666163652069640000000081525060200191505060405180910390fd5b6001806000837bffffffffffffffffffffffffffffffffffffffffffffffffffffffff19167bffffffffffffffffffffffffffffffffffffffffffffffffffffffff1916815260200190815260200160002060006101000a81548160ff02191690831515021790555050565b620003456200022460201b60201c565b73ffffffffffffffffffffffffffffffffffffffff166200036b620004c060201b60201c565b73ffffffffffffffffffffffffffffffffffffffff1614620003f5576040517f08c379a00000000000000000000000000000000000000000000000000000000081526004018080602001828103825260208152602001807f4f776e61626c653a2063616c6c6572206973206e6f7420746865206f776e657281525060200191505060405180910390fd5b80600c90805190602001906200040d92919062000505565b50620004bd600c8054600181600116156101000203166002900480601f016020809104026020016040519081016040528092919081815260200182805460018160011615610100020316600290048015620004ac5780601f106200048057610100808354040283529160200191620004ac565b820191906000526020600020905b8154815290600101906020018083116200048e57829003601f168201915b5050505050620004e960201b60201c565b50565b60008060009054906101000a900473ffffffffffffffffffffffffffffffffffffffff16905090565b80600a90805190602001906200050192919062000505565b5050565b828054600181600116156101000203166002900490600052602060002090601f016020900481019282601f106200054857805160ff191683800117855562000579565b8280016001018555821562000579579182015b82811115620005785782518255916020019190600101906200055b565b5b5090506200058891906200058c565b5090565b5b80821115620005a75760008160009055506001016200058d565b5090565b6148cb80620005bb6000396000f3fe6080604052600436106101f95760003560e01c806363f1e0a31161010d57806397bfe3bd116100a0578063cd46c89e1161006f578063cd46c89e146111a4578063e985e9c5146112b4578063f2fde38b1461133b578063f3fe12c91461138c578063f8fb33661461145b576101f9565b806397bfe3bd14610e71578063a22cb46514610f81578063b88d4fde14610fde578063c87b56dd146110f0576101f9565b8063743976a0116100dc578063743976a014610ce557806374aaa5b314610d755780638da5cb5b14610da057806395d89b4114610de1576101f9565b806363f1e0a314610ac95780636c0360eb14610bd957806370a0823114610c69578063715018a614610cce576101f9565b80632c73c0811161019057806355dd574c1161015f57806355dd574c1461083d57806355f804b3146108545780635a01b5f31461091c5780635edf61b514610a395780636352211e14610a64576101f9565b80632c73c081146105f45780632f745c591461070457806342842e0e146107735780634f6ccce7146107ee576101f9565b8063095ea7b3116101cc578063095ea7b31461042b57806318160ddd1461048657806323b872dd146104b15780632c1e5b831461052c576101f9565b806301ffc9a7146101fe57806305be3f381461026e57806306fdde0314610336578063081812fc146103c6575b600080fd5b34801561020a57600080fd5b506102566004803603602081101561022157600080fd5b8101908080357bffffffffffffffffffffffffffffffffffffffffffffffffffffffff19169060200190929190505050611472565b60405180821515815260200191505060405180910390f35b34801561027a57600080fd5b506103346004803603602081101561029157600080fd5b81019080803590602001906401000000008111156102ae57600080fd5b8201836020820111156102c057600080fd5b803590602001918460018302840111640100000000831117156102e257600080fd5b91908080601f016020809104026020016040519081016040528093929190818152602001838380828437600081840152601f19601f8201169050808301925050505050505091929192905050506114da565b005b34801561034257600080fd5b5061034b611612565b6040518080602001828103825283818151815260200191508051906020019080838360005b8381101561038b578082015181840152602081019050610370565b50505050905090810190601f1680156103b85780820380516001836020036101000a031916815260200191505b509250505060405180910390f35b3480156103d257600080fd5b506103ff600480360360208110156103e957600080fd5b81019080803590602001909291905050506116b4565b604051808273ffffffffffffffffffffffffffffffffffffffff16815260200191505060405180910390f35b34801561043757600080fd5b506104846004803603604081101561044e57600080fd5b81019080803573ffffffffffffffffffffffffffffffffffffffff1690602001909291908035906020019092919050505061174f565b005b34801561049257600080fd5b5061049b611893565b6040518082815260200191505060405180910390f35b3480156104bd57600080fd5b5061052a600480360360608110156104d457600080fd5b81019080803573ffffffffffffffffffffffffffffffffffffffff169060200190929190803573ffffffffffffffffffffffffffffffffffffffff169060200190929190803590602001909291905050506118a4565b005b34801561053857600080fd5b506105f26004803603602081101561054f57600080fd5b810190808035906020019064010000000081111561056c57600080fd5b82018360208201111561057e57600080fd5b803590602001918460018302840111640100000000831117156105a057600080fd5b91908080601f016020809104026020016040519081016040528093929190818152602001838380828437600081840152601f19601f82011690508083019250505050505050919291929050505061191a565b005b6106ad6004803603602081101561060a57600080fd5b810190808035906020019064010000000081111561062757600080fd5b82018360208201111561063957600080fd5b8035906020019184600183028401116401000000008311171561065b57600080fd5b91908080601f016020809104026020016040519081016040528093929190818152602001838380828437600081840152601f19601f8201169050808301925050505050505091929192905050506119e3565b6040518080602001828103825283818151815260200191508051906020019060200280838360005b838110156106f05780820151818401526020810190506106d5565b505050509050019250505060405180910390f35b34801561071057600080fd5b5061075d6004803603604081101561072757600080fd5b81019080803573ffffffffffffffffffffffffffffffffffffffff16906020019092919080359060200190929190505050611b0c565b6040518082815260200191505060405180910390f35b34801561077f57600080fd5b506107ec6004803603606081101561079657600080fd5b81019080803573ffffffffffffffffffffffffffffffffffffffff169060200190929190803573ffffffffffffffffffffffffffffffffffffffff16906020019092919080359060200190929190505050611b67565b005b3480156107fa57600080fd5b506108276004803603602081101561081157600080fd5b8101908080359060200190929190505050611b87565b6040518082815260200191505060405180910390f35b34801561084957600080fd5b50610852611baa565b005b34801561086057600080fd5b5061091a6004803603602081101561087757600080fd5b810190808035906020019064010000000081111561089457600080fd5b8201836020820111156108a657600080fd5b803590602001918460018302840111640100000000831117156108c857600080fd5b91908080601f016020809104026020016040519081016040528093929190818152602001838380828437600081840152601f19601f820116905080830192505050505050509192919290505050611c76565b005b34801561092857600080fd5b506109e26004803603602081101561093f57600080fd5b810190808035906020019064010000000081111561095c57600080fd5b82018360208201111561096e57600080fd5b8035906020019184600183028401116401000000008311171561099057600080fd5b91908080601f016020809104026020016040519081016040528093929190818152602001838380828437600081840152601f19601f820116905080830192505050505050509192919290505050611de2565b6040518080602001828103825283818151815260200191508051906020019060200280838360005b83811015610a25578082015181840152602081019050610a0a565b505050509050019250505060405180910390f35b348015610a4557600080fd5b50610a4e611ec2565b6040518082815260200191505060405180910390f35b348015610a7057600080fd5b50610a9d60048036036020811015610a8757600080fd5b8101908080359060200190929190505050611ecc565b604051808273ffffffffffffffffffffffffffffffffffffffff16815260200191505060405180910390f35b610b8260048036036020811015610adf57600080fd5b8101908080359060200190640100000000811115610afc57600080fd5b820183602082011115610b0e57600080fd5b80359060200191846001830284011164010000000083111715610b3057600080fd5b91908080601f016020809104026020016040519081016040528093929190818152602001838380828437600081840152601f19601f820116905080830192505050505050509192919290505050611f03565b6040518080602001828103825283818151815260200191508051906020019060200280838360005b83811015610bc5578082015181840152602081019050610baa565b505050509050019250505060405180910390f35b348015610be557600080fd5b50610bee612095565b6040518080602001828103825283818151815260200191508051906020019080838360005b83811015610c2e578082015181840152602081019050610c13565b50505050905090810190601f168015610c5b5780820380516001836020036101000a031916815260200191505b509250505060405180910390f35b348015610c7557600080fd5b50610cb860048036036020811015610c8c57600080fd5b81019080803573ffffffffffffffffffffffffffffffffffffffff169060200190929190505050612137565b6040518082815260200191505060405180910390f35b348015610cda57600080fd5b50610ce361220c565b005b348015610cf157600080fd5b50610cfa612379565b6040518080602001828103825283818151815260200191508051906020019080838360005b83811015610d3a578082015181840152602081019050610d1f565b50505050905090810190601f168015610d675780820380516001836020036101000a031916815260200191505b509250505060405180910390f35b348015610d8157600080fd5b50610d8a61241b565b6040518082815260200191505060405180910390f35b348015610dac57600080fd5b50610db5612425565b604051808273ffffffffffffffffffffffffffffffffffffffff16815260200191505060405180910390f35b348015610ded57600080fd5b50610df661244e565b6040518080602001828103825283818151815260200191508051906020019080838360005b83811015610e36578082015181840152602081019050610e1b565b50505050905090810190601f168015610e635780820380516001836020036101000a031916815260200191505b509250505060405180910390f35b610f2a60048036036020811015610e8757600080fd5b8101908080359060200190640100000000811115610ea457600080fd5b820183602082011115610eb657600080fd5b80359060200191846001830284011164010000000083111715610ed857600080fd5b91908080601f016020809104026020016040519081016040528093929190818152602001838380828437600081840152601f19601f8201169050808301925050505050505091929192905050506124f0565b6040518080602001828103825283818151815260200191508051906020019060200280838360005b83811015610f6d578082015181840152602081019050610f52565b505050509050019250505060405180910390f35b348015610f8d57600080fd5b50610fdc60048036036040811015610fa457600080fd5b81019080803573ffffffffffffffffffffffffffffffffffffffff169060200190929190803515159060200190929190505050612619565b005b348015610fea57600080fd5b506110ee6004803603608081101561100157600080fd5b81019080803573ffffffffffffffffffffffffffffffffffffffff169060200190929190803573ffffffffffffffffffffffffffffffffffffffff169060200190929190803590602001909291908035906020019064010000000081111561106857600080fd5b82018360208201111561107a57600080fd5b8035906020019184600183028401116401000000008311171561109c57600080fd5b91908080601f016020809104026020016040519081016040528093929190818152602001838380828437600081840152601f19601f8201169050808301925050505050505091929192905050506127cf565b005b3480156110fc57600080fd5b506111296004803603602081101561111357600080fd5b8101908080359060200190929190505050612847565b6040518080602001828103825283818151815260200191508051906020019080838360005b8381101561116957808201518184015260208101905061114e565b50505050905090810190601f1680156111965780820380516001836020036101000a031916815260200191505b509250505060405180910390f35b61125d600480360360208110156111ba57600080fd5b81019080803590602001906401000000008111156111d757600080fd5b8201836020820111156111e957600080fd5b8035906020019184600183028401116401000000008311171561120b57600080fd5b91908080601f016020809104026020016040519081016040528093929190818152602001838380828437600081840152601f19601f820116905080830192505050505050509192919290505050612b18565b6040518080602001828103825283818151815260200191508051906020019060200280838360005b838110156112a0578082015181840152602081019050611285565b505050509050019250505060405180910390f35b3480156112c057600080fd5b50611323600480360360408110156112d757600080fd5b81019080803573ffffffffffffffffffffffffffffffffffffffff169060200190929190803573ffffffffffffffffffffffffffffffffffffffff169060200190929190505050612c3c565b60405180821515815260200191505060405180910390f35b34801561134757600080fd5b5061138a6004803603602081101561135e57600080fd5b81019080803573ffffffffffffffffffffffffffffffffffffffff169060200190929190505050612cd0565b005b611445600480360360208110156113a257600080fd5b81019080803590602001906401000000008111156113bf57600080fd5b8201836020820111156113d157600080fd5b803590602001918460018302840111640100000000831117156113f357600080fd5b91908080601f016020809104026020016040519081016040528093929190818152602001838380828437600081840152601f19601f820116905080830192505050505050509192919290505050612ec2565b6040518082815260200191505060405180910390f35b34801561146757600080fd5b50611470612fe6565b005b600060016000837bffffffffffffffffffffffffffffffffffffffffffffffffffffffff19167bffffffffffffffffffffffffffffffffffffffffffffffffffffffff1916815260200190815260200160002060009054906101000a900460ff169050919050565b6114e26130b2565b73ffffffffffffffffffffffffffffffffffffffff16611500612425565b73ffffffffffffffffffffffffffffffffffffffff1614611589576040517f08c379a00000000000000000000000000000000000000000000000000000000081526004018080602001828103825260208152602001807f4f776e61626c653a2063616c6c6572206973206e6f7420746865206f776e657281525060200191505060405180910390fd5b60006012805460018160011615610100020316600290049050146115f8576040517f08c379a00000000000000000000000000000000000000000000000000000000081526004018080602001828103825260368152602001806146156036913960400191505060405180910390fd5b806012908051906020019061160e929190614523565b5050565b606060078054600181600116156101000203166002900480601f0160208091040260200160405190810160405280929190818152602001828054600181600116156101000203166002900480156116aa5780601f1061167f576101008083540402835291602001916116aa565b820191906000526020600020905b81548152906001019060200180831161168d57829003601f168201915b5050505050905090565b60006116bf826130ba565b611714576040517f08c379a000000000000000000000000000000000000000000000000000000000815260040180806020018281038252602c815260200180614794602c913960400191505060405180910390fd5b6005600083815260200190815260200160002060009054906101000a900473ffffffffffffffffffffffffffffffffffffffff169050919050565b600061175a82611ecc565b90508073ffffffffffffffffffffffffffffffffffffffff168373ffffffffffffffffffffffffffffffffffffffff1614156117e1576040517f08c379a00000000000000000000000000000000000000000000000000000000081526004018080602001828103825260218152602001806148446021913960400191505060405180910390fd5b8073ffffffffffffffffffffffffffffffffffffffff166118006130b2565b73ffffffffffffffffffffffffffffffffffffffff16148061182f575061182e816118296130b2565b612c3c565b5b611884576040517f08c379a00000000000000000000000000000000000000000000000000000000081526004018080602001828103825260388152602001806146e76038913960400191505060405180910390fd5b61188e83836130d7565b505050565b600061189f6003613190565b905090565b6118b56118af6130b2565b826131a5565b61190a576040517f08c379a00000000000000000000000000000000000000000000000000000000081526004018080602001828103825260318152602001806148656031913960400191505060405180910390fd5b611915838383613299565b505050565b6119226130b2565b73ffffffffffffffffffffffffffffffffffffffff16611940612425565b73ffffffffffffffffffffffffffffffffffffffff16146119c9576040517f08c379a00000000000000000000000000000000000000000000000000000000081526004018080602001828103825260208152602001807f4f776e61626c653a2063616c6c6572206973206e6f7420746865206f776e657281525060200191505060405180910390fd5b80601390805190602001906119df929190614523565b5050565b60606000601054116119f457600080fd5b6704c9afac0f8280003414611a71576040517f08c379a00000000000000000000000000000000000000000000000000000000081526004018080602001828103825260148152602001807f636c61696d696e6720302e33343520657468657200000000000000000000000081525060200191505060405180910390fd5b601160009054906101000a900460ff1615611a96576000600f5411611a9557600080fd5b5b6000600290506060611aaa848360056134dc565b9050611ab4612425565b73ffffffffffffffffffffffffffffffffffffffff166108fc6704c9afac0f8280009081150290604051600060405180830381858888f19350505050158015611b01573d6000803e3d6000fd5b508092505050919050565b6000611b5f82600260008673ffffffffffffffffffffffffffffffffffffffff1673ffffffffffffffffffffffffffffffffffffffff16815260200190815260200160002061357490919063ffffffff16565b905092915050565b611b82838383604051806020016040528060008152506127cf565b505050565b600080611b9e83600361358e90919063ffffffff16565b50905080915050919050565b611bb26130b2565b73ffffffffffffffffffffffffffffffffffffffff16611bd0612425565b73ffffffffffffffffffffffffffffffffffffffff1614611c59576040517f08c379a00000000000000000000000000000000000000000000000000000000081526004018080602001828103825260208152602001807f4f776e61626c653a2063616c6c6572206973206e6f7420746865206f776e657281525060200191505060405180910390fd5b6001601160006101000a81548160ff021916908315150217905550565b611c7e6130b2565b73ffffffffffffffffffffffffffffffffffffffff16611c9c612425565b73ffffffffffffffffffffffffffffffffffffffff1614611d25576040517f08c379a00000000000000000000000000000000000000000000000000000000081526004018080602001828103825260208152602001807f4f776e61626c653a2063616c6c6572206973206e6f7420746865206f776e657281525060200191505060405180910390fd5b80600c9080519060200190611d3b929190614523565b50611ddf600c8054600181600116156101000203166002900480601f016020809104026020016040519081016040528092919081815260200182805460018160011615610100020316600290048015611dd55780601f10611daa57610100808354040283529160200191611dd5565b820191906000526020600020905b815481529060010190602001808311611db857829003601f168201915b50505050506135ba565b50565b6060611dec6130b2565b73ffffffffffffffffffffffffffffffffffffffff16611e0a612425565b73ffffffffffffffffffffffffffffffffffffffff1614611e93576040517f08c379a00000000000000000000000000000000000000000000000000000000081526004018080602001828103825260208152602001807f4f776e61626c653a2063616c6c6572206973206e6f7420746865206f776e657281525060200191505060405180910390fd5b600060105411611ea257600080fd5b6000600290506060611eb68483600a6134dc565b90508092505050919050565b6000601054905090565b6000611efc826040518060600160405280602981526020016147496029913960036135d49092919063ffffffff16565b9050919050565b6060600060105411611f1457600080fd5b6709935f581f0500003414611f91576040517f08c379a00000000000000000000000000000000000000000000000000000000081526004018080602001828103825260138152602001807f636c61696d696e6720302e36392065746865720000000000000000000000000081525060200191505060405180910390fd5b601160009054906101000a900460ff161561201f576000600f541161201e576040517f08c379a00000000000000000000000000000000000000000000000000000000081526004018080602001828103825260168152602001807f4f7574206f66205052455f53414c4520546f6b656e730000000000000000000081525060200191505060405180910390fd5b5b60006002905060606120338483600a6134dc565b905061203d612425565b73ffffffffffffffffffffffffffffffffffffffff166108fc6709935f581f0500009081150290604051600060405180830381858888f1935050505015801561208a573d6000803e3d6000fd5b508092505050919050565b6060600a8054600181600116156101000203166002900480601f01602080910402602001604051908101604052809291908181526020018280546001816001161561010002031660029004801561212d5780601f106121025761010080835404028352916020019161212d565b820191906000526020600020905b81548152906001019060200180831161211057829003601f168201915b5050505050905090565b60008073ffffffffffffffffffffffffffffffffffffffff168273ffffffffffffffffffffffffffffffffffffffff1614156121be576040517f08c379a000000000000000000000000000000000000000000000000000000000815260040180806020018281038252602a81526020018061471f602a913960400191505060405180910390fd5b612205600260008473ffffffffffffffffffffffffffffffffffffffff1673ffffffffffffffffffffffffffffffffffffffff1681526020019081526020016000206135f3565b9050919050565b6122146130b2565b73ffffffffffffffffffffffffffffffffffffffff16612232612425565b73ffffffffffffffffffffffffffffffffffffffff16146122bb576040517f08c379a00000000000000000000000000000000000000000000000000000000081526004018080602001828103825260208152602001807f4f776e61626c653a2063616c6c6572206973206e6f7420746865206f776e657281525060200191505060405180910390fd5b600073ffffffffffffffffffffffffffffffffffffffff1660008054906101000a900473ffffffffffffffffffffffffffffffffffffffff1673ffffffffffffffffffffffffffffffffffffffff167f8be0079c531659141344cd1fd0a4f28419497f9722a3daafe3b4186f6b6457e060405160405180910390a360008060006101000a81548173ffffffffffffffffffffffffffffffffffffffff021916908373ffffffffffffffffffffffffffffffffffffffff160217905550565b6060600c8054600181600116156101000203166002900480601f0160208091040260200160405190810160405280929190818152602001828054600181600116156101000203166002900480156124115780601f106123e657610100808354040283529160200191612411565b820191906000526020600020905b8154815290600101906020018083116123f457829003601f168201915b5050505050905090565b6000600f54905090565b60008060009054906101000a900473ffffffffffffffffffffffffffffffffffffffff16905090565b606060088054600181600116156101000203166002900480601f0160208091040260200160405190810160405280929190818152602001828054600181600116156101000203166002900480156124e65780601f106124bb576101008083540402835291602001916124e6565b820191906000526020600020905b8154815290600101906020018083116124c957829003601f168201915b5050505050905090565b606060006010541161250157600080fd5b6701ea4644d3010000341461257e576040517f08c379a00000000000000000000000000000000000000000000000000000000081526004018080602001828103825260148152602001807f636c61696d696e6720302e31333820657468657200000000000000000000000081525060200191505060405180910390fd5b601160009054906101000a900460ff16156125a3576000600f54116125a257600080fd5b5b60006002905060606125b7848360026134dc565b90506125c1612425565b73ffffffffffffffffffffffffffffffffffffffff166108fc6701ea4644d30100009081150290604051600060405180830381858888f1935050505015801561260e573d6000803e3d6000fd5b508092505050919050565b6126216130b2565b73ffffffffffffffffffffffffffffffffffffffff168273ffffffffffffffffffffffffffffffffffffffff1614156126c2576040517f08c379a00000000000000000000000000000000000000000000000000000000081526004018080602001828103825260198152602001807f4552433732313a20617070726f766520746f2063616c6c65720000000000000081525060200191505060405180910390fd5b80600660006126cf6130b2565b73ffffffffffffffffffffffffffffffffffffffff1673ffffffffffffffffffffffffffffffffffffffff16815260200190815260200160002060008473ffffffffffffffffffffffffffffffffffffffff1673ffffffffffffffffffffffffffffffffffffffff16815260200190815260200160002060006101000a81548160ff0219169083151502179055508173ffffffffffffffffffffffffffffffffffffffff1661277c6130b2565b73ffffffffffffffffffffffffffffffffffffffff167f17307eab39ab6107e8899845ad3d59bd9653f200f220920489ca2b5937696c318360405180821515815260200191505060405180910390a35050565b6127e06127da6130b2565b836131a5565b612835576040517f08c379a00000000000000000000000000000000000000000000000000000000081526004018080602001828103825260318152602001806148656031913960400191505060405180910390fd5b61284184848484613608565b50505050565b6060612852826130ba565b6128a7576040517f08c379a000000000000000000000000000000000000000000000000000000000815260040180806020018281038252602f815260200180614815602f913960400191505060405180910390fd5b6060600960008481526020019081526020016000208054600181600116156101000203166002900480601f0160208091040260200160405190810160405280929190818152602001828054600181600116156101000203166002900480156129505780601f1061292557610100808354040283529160200191612950565b820191906000526020600020905b81548152906001019060200180831161293357829003601f168201915b505050505090506060612961612095565b9050600081511415612977578192505050612b13565b600082511115612a485780826040516020018083805190602001908083835b602083106129b95780518252602082019150602081019050602083039250612996565b6001836020036101000a03801982511681845116808217855250505050505090500182805190602001908083835b60208310612a0a57805182526020820191506020810190506020830392506129e7565b6001836020036101000a0380198251168184511680821785525050505050509050019250505060405160208183030381529060405292505050612b13565b80612a528561367a565b6040516020018083805190602001908083835b60208310612a885780518252602082019150602081019050602083039250612a65565b6001836020036101000a03801982511681845116808217855250505050505090500182805190602001908083835b60208310612ad95780518252602082019150602081019050602083039250612ab6565b6001836020036101000a03801982511681845116808217855250505050505090500192505050604051602081830303815290604052925050505b919050565b6060600060105411612b2957600080fd5b671326beb03e0a00003414612ba6576040517f08c379a00000000000000000000000000000000000000000000000000000000081526004018080602001828103825260138152602001807f636c61696d696e6720302e32302065746865720000000000000000000000000081525060200191505060405180910390fd5b60001515601160009054906101000a900460ff16151514612bc657600080fd5b6000600290506060612bda848360146134dc565b9050612be4612425565b73ffffffffffffffffffffffffffffffffffffffff166108fc671326beb03e0a00009081150290604051600060405180830381858888f19350505050158015612c31573d6000803e3d6000fd5b508092505050919050565b6000600660008473ffffffffffffffffffffffffffffffffffffffff1673ffffffffffffffffffffffffffffffffffffffff16815260200190815260200160002060008373ffffffffffffffffffffffffffffffffffffffff1673ffffffffffffffffffffffffffffffffffffffff16815260200190815260200160002060009054906101000a900460ff16905092915050565b612cd86130b2565b73ffffffffffffffffffffffffffffffffffffffff16612cf6612425565b73ffffffffffffffffffffffffffffffffffffffff1614612d7f576040517f08c379a00000000000000000000000000000000000000000000000000000000081526004018080602001828103825260208152602001807f4f776e61626c653a2063616c6c6572206973206e6f7420746865206f776e657281525060200191505060405180910390fd5b600073ffffffffffffffffffffffffffffffffffffffff168173ffffffffffffffffffffffffffffffffffffffff161415612e05576040517f08c379a000000000000000000000000000000000000000000000000000000000815260040180806020018281038252602681526020018061464b6026913960400191505060405180910390fd5b8073ffffffffffffffffffffffffffffffffffffffff1660008054906101000a900473ffffffffffffffffffffffffffffffffffffffff1673ffffffffffffffffffffffffffffffffffffffff167f8be0079c531659141344cd1fd0a4f28419497f9722a3daafe3b4186f6b6457e060405160405180910390a3806000806101000a81548173ffffffffffffffffffffffffffffffffffffffff021916908373ffffffffffffffffffffffffffffffffffffffff16021790555050565b60008060105411612ed257600080fd5b66f52322698080003414612f4e576040517f08c379a00000000000000000000000000000000000000000000000000000000081526004018080602001828103825260148152602001807f636c61696d696e6720302e30363920657468657200000000000000000000000081525060200191505060405180910390fd5b601160009054906101000a900460ff1615612f73576000600f5411612f7257600080fd5b5b6000600290506000612f8584836137c1565b9050612f8f612425565b73ffffffffffffffffffffffffffffffffffffffff166108fc66f52322698080009081150290604051600060405180830381858888f19350505050158015612fdb573d6000803e3d6000fd5b508092505050919050565b612fee6130b2565b73ffffffffffffffffffffffffffffffffffffffff1661300c612425565b73ffffffffffffffffffffffffffffffffffffffff1614613095576040517f08c379a00000000000000000000000000000000000000000000000000000000081526004018080602001828103825260208152602001807f4f776e61626c653a2063616c6c6572206973206e6f7420746865206f776e657281525060200191505060405180910390fd5b6000601160006101000a81548160ff021916908315150217905550565b600033905090565b60006130d082600361382790919063ffffffff16565b9050919050565b816005600083815260200190815260200160002060006101000a81548173ffffffffffffffffffffffffffffffffffffffff021916908373ffffffffffffffffffffffffffffffffffffffff160217905550808273ffffffffffffffffffffffffffffffffffffffff1661314a83611ecc565b73ffffffffffffffffffffffffffffffffffffffff167f8c5be1e5ebec7d5bd14f71427d1e84f3dd0314c0f7b2291e5b200ac8c7c3b92560405160405180910390a45050565b600061319e82600001613841565b9050919050565b60006131b0826130ba565b613205576040517f08c379a000000000000000000000000000000000000000000000000000000000815260040180806020018281038252602c8152602001806146bb602c913960400191505060405180910390fd5b600061321083611ecc565b90508073ffffffffffffffffffffffffffffffffffffffff168473ffffffffffffffffffffffffffffffffffffffff16148061327f57508373ffffffffffffffffffffffffffffffffffffffff16613267846116b4565b73ffffffffffffffffffffffffffffffffffffffff16145b80613290575061328f8185612c3c565b5b91505092915050565b8273ffffffffffffffffffffffffffffffffffffffff166132b982611ecc565b73ffffffffffffffffffffffffffffffffffffffff1614613325576040517f08c379a00000000000000000000000000000000000000000000000000000000081526004018080602001828103825260298152602001806147ec6029913960400191505060405180910390fd5b600073ffffffffffffffffffffffffffffffffffffffff168273ffffffffffffffffffffffffffffffffffffffff1614156133ab576040517f08c379a00000000000000000000000000000000000000000000000000000000081526004018080602001828103825260248152602001806146716024913960400191505060405180910390fd5b6133b6838383613852565b6133c16000826130d7565b61341281600260008673ffffffffffffffffffffffffffffffffffffffff1673ffffffffffffffffffffffffffffffffffffffff16815260200190815260200160002061385790919063ffffffff16565b5061346481600260008573ffffffffffffffffffffffffffffffffffffffff1673ffffffffffffffffffffffffffffffffffffffff16815260200190815260200160002061387190919063ffffffff16565b5061347b8183600361388b9092919063ffffffff16565b50808273ffffffffffffffffffffffffffffffffffffffff168473ffffffffffffffffffffffffffffffffffffffff167fddf252ad1be2c89b69c2b068fc378daa952ba7f163c4a11628f55a4df523b3ef60405160405180910390a4505050565b6060808267ffffffffffffffff811180156134f657600080fd5b506040519080825280602002602001820160405280156135255781602001602082028036833780820191505090505b50905060005b8381101561356857600061353f87876137c1565b90508083838151811061354e57fe5b60200260200101818152505050808060010191505061352b565b50809150509392505050565b600061358383600001836138c0565b60001c905092915050565b6000806000806135a18660000186613943565b915091508160001c8160001c9350935050509250929050565b80600a90805190602001906135d0929190614523565b5050565b60006135e7846000018460001b846139dc565b60001c90509392505050565b600061360182600001613ad2565b9050919050565b613613848484613299565b61361f84848484613ae3565b613674576040517f08c379a00000000000000000000000000000000000000000000000000000000081526004018080602001828103825260328152602001806145e36032913960400191505060405180910390fd5b50505050565b606060008214156136c2576040518060400160405280600181526020017f300000000000000000000000000000000000000000000000000000000000000081525090506137bc565b600082905060005b600082146136ec578080600101915050600a82816136e457fe5b0491506136ca565b60608167ffffffffffffffff8111801561370557600080fd5b506040519080825280601f01601f1916602001820160405280156137385781602001600182028036833780820191505090505b50905060006001830390508593505b600084146137b457600a848161375957fe5b0660300160f81b8282806001900393508151811061377357fe5b60200101907effffffffffffffffffffffffffffffffffffffffffffffffffffffffffffff1916908160001a905350600a84816137ac57fe5b049350613747565b819450505050505b919050565b60006001600d5401600d819055506000600d5490506137e03382613cfc565b6137ea8185613d1a565b601160009054906101000a900460ff1615613810576001600f5403600f8190555061381d565b6001601054036010819055505b8091505092915050565b6000613839836000018360001b613da4565b905092915050565b600081600001805490509050919050565b505050565b6000613869836000018360001b613dc7565b905092915050565b6000613883836000018360001b613eaf565b905092915050565b60006138b7846000018460001b8473ffffffffffffffffffffffffffffffffffffffff1660001b613f1f565b90509392505050565b600081836000018054905011613921576040517f08c379a00000000000000000000000000000000000000000000000000000000081526004018080602001828103825260228152602001806145c16022913960400191505060405180910390fd5b82600001828154811061393057fe5b9060005260206000200154905092915050565b600080828460000180549050116139a5576040517f08c379a00000000000000000000000000000000000000000000000000000000081526004018080602001828103825260228152602001806147726022913960400191505060405180910390fd5b60008460000184815481106139b657fe5b906000526020600020906002020190508060000154816001015492509250509250929050565b60008084600101600085815260200190815260200160002054905060008114158390613aa3576040517f08c379a00000000000000000000000000000000000000000000000000000000081526004018080602001828103825283818151815260200191508051906020019080838360005b83811015613a68578082015181840152602081019050613a4d565b50505050905090810190601f168015613a955780820380516001836020036101000a031916815260200191505b509250505060405180910390fd5b50846000016001820381548110613ab657fe5b9060005260206000209060020201600101549150509392505050565b600081600001805490509050919050565b6000613b048473ffffffffffffffffffffffffffffffffffffffff16613ffb565b613b115760019050613cf4565b6060613c7b63150b7a0260e01b613b266130b2565b888787604051602401808573ffffffffffffffffffffffffffffffffffffffff1681526020018473ffffffffffffffffffffffffffffffffffffffff16815260200183815260200180602001828103825283818151815260200191508051906020019080838360005b83811015613baa578082015181840152602081019050613b8f565b50505050905090810190601f168015613bd75780820380516001836020036101000a031916815260200191505b5095505050505050604051602081830303815290604052907bffffffffffffffffffffffffffffffffffffffffffffffffffffffff19166020820180517bffffffffffffffffffffffffffffffffffffffffffffffffffffffff83818316178352505050506040518060600160405280603281526020016145e3603291398773ffffffffffffffffffffffffffffffffffffffff1661400e9092919063ffffffff16565b90506000818060200190516020811015613c9457600080fd5b8101908080519060200190929190505050905063150b7a0260e01b7bffffffffffffffffffffffffffffffffffffffffffffffffffffffff1916817bffffffffffffffffffffffffffffffffffffffffffffffffffffffff191614925050505b949350505050565b613d16828260405180602001604052806000815250614026565b5050565b613d23826130ba565b613d78576040517f08c379a000000000000000000000000000000000000000000000000000000000815260040180806020018281038252602c8152602001806147c0602c913960400191505060405180910390fd5b80600960008481526020019081526020016000209080519060200190613d9f929190614523565b505050565b600080836001016000848152602001908152602001600020541415905092915050565b60008083600101600084815260200190815260200160002054905060008114613ea35760006001820390506000600186600001805490500390506000866000018281548110613e1257fe5b9060005260206000200154905080876000018481548110613e2f57fe5b9060005260206000200181905550600183018760010160008381526020019081526020016000208190555086600001805480613e6757fe5b60019003818190600052602060002001600090559055866001016000878152602001908152602001600020600090556001945050505050613ea9565b60009150505b92915050565b6000613ebb8383614097565b613f14578260000182908060018154018082558091505060019003906000526020600020016000909190919091505582600001805490508360010160008481526020019081526020016000208190555060019050613f19565b600090505b92915050565b6000808460010160008581526020019081526020016000205490506000811415613fc657846000016040518060400160405280868152602001858152509080600181540180825580915050600190039060005260206000209060020201600090919091909150600082015181600001556020820151816001015550508460000180549050856001016000868152602001908152602001600020819055506001915050613ff4565b82856000016001830381548110613fd957fe5b90600052602060002090600202016001018190555060009150505b9392505050565b600080823b905060008111915050919050565b606061401d84846000856140ba565b90509392505050565b6140308383614263565b61403d6000848484613ae3565b614092576040517f08c379a00000000000000000000000000000000000000000000000000000000081526004018080602001828103825260328152602001806145e36032913960400191505060405180910390fd5b505050565b600080836001016000848152602001908152602001600020541415905092915050565b606082471015614115576040517f08c379a00000000000000000000000000000000000000000000000000000000081526004018080602001828103825260268152602001806146956026913960400191505060405180910390fd5b61411e85613ffb565b614190576040517f08c379a000000000000000000000000000000000000000000000000000000000815260040180806020018281038252601d8152602001807f416464726573733a2063616c6c20746f206e6f6e2d636f6e747261637400000081525060200191505060405180910390fd5b600060608673ffffffffffffffffffffffffffffffffffffffff1685876040518082805190602001908083835b602083106141e057805182526020820191506020810190506020830392506141bd565b6001836020036101000a03801982511681845116808217855250505050505090500191505060006040518083038185875af1925050503d8060008114614242576040519150601f19603f3d011682016040523d82523d6000602084013e614247565b606091505b5091509150614257828286614457565b92505050949350505050565b600073ffffffffffffffffffffffffffffffffffffffff168273ffffffffffffffffffffffffffffffffffffffff161415614306576040517f08c379a00000000000000000000000000000000000000000000000000000000081526004018080602001828103825260208152602001807f4552433732313a206d696e7420746f20746865207a65726f206164647265737381525060200191505060405180910390fd5b61430f816130ba565b15614382576040517f08c379a000000000000000000000000000000000000000000000000000000000815260040180806020018281038252601c8152602001807f4552433732313a20746f6b656e20616c7265616479206d696e7465640000000081525060200191505060405180910390fd5b61438e60008383613852565b6143df81600260008573ffffffffffffffffffffffffffffffffffffffff1673ffffffffffffffffffffffffffffffffffffffff16815260200190815260200160002061387190919063ffffffff16565b506143f68183600361388b9092919063ffffffff16565b50808273ffffffffffffffffffffffffffffffffffffffff16600073ffffffffffffffffffffffffffffffffffffffff167fddf252ad1be2c89b69c2b068fc378daa952ba7f163c4a11628f55a4df523b3ef60405160405180910390a45050565b606083156144675782905061451c565b60008351111561447a5782518084602001fd5b816040517f08c379a00000000000000000000000000000000000000000000000000000000081526004018080602001828103825283818151815260200191508051906020019080838360005b838110156144e15780820151818401526020810190506144c6565b50505050905090810190601f16801561450e5780820380516001836020036101000a031916815260200191505b509250505060405180910390fd5b9392505050565b828054600181600116156101000203166002900490600052602060002090601f016020900481019282601f1061456457805160ff1916838001178555614592565b82800160010185558215614592579182015b82811115614591578251825591602001919060010190614576565b5b50905061459f91906145a3565b5090565b5b808211156145bc5760008160009055506001016145a4565b509056fe456e756d657261626c655365743a20696e646578206f7574206f6620626f756e64734552433732313a207472616e7366657220746f206e6f6e20455243373231526563656976657220696d706c656d656e746572546869732049504653206275636b657420697320696d6d7561626c6520616e642063616e206f6e6c7920626520736574206f6e63652e4f776e61626c653a206e6577206f776e657220697320746865207a65726f20616464726573734552433732313a207472616e7366657220746f20746865207a65726f2061646472657373416464726573733a20696e73756666696369656e742062616c616e636520666f722063616c6c4552433732313a206f70657261746f7220717565727920666f72206e6f6e6578697374656e7420746f6b656e4552433732313a20617070726f76652063616c6c6572206973206e6f74206f776e6572206e6f7220617070726f76656420666f7220616c6c4552433732313a2062616c616e636520717565727920666f7220746865207a65726f20616464726573734552433732313a206f776e657220717565727920666f72206e6f6e6578697374656e7420746f6b656e456e756d657261626c654d61703a20696e646578206f7574206f6620626f756e64734552433732313a20617070726f76656420717565727920666f72206e6f6e6578697374656e7420746f6b656e4552433732314d657461646174613a2055524920736574206f66206e6f6e6578697374656e7420746f6b656e4552433732313a207472616e73666572206f6620746f6b656e2074686174206973206e6f74206f776e4552433732314d657461646174613a2055524920717565727920666f72206e6f6e6578697374656e7420746f6b656e4552433732313a20617070726f76616c20746f2063757272656e74206f776e65724552433732313a207472616e736665722063616c6c6572206973206e6f74206f776e6572206e6f7220617070726f766564a2646970667358221220223e4ff95690f653f31ee635fd6f55bbe14632c9da15518bb00b6cc59b7059e964736f6c63430007000033",
  "source": "// SPDX-License-Identifier: MIT\npragma solidity >=0.4.22 <0.9.0;\nimport \"@openzeppelin/contracts/access/Ownable.sol\";\nimport \"@openzeppelin/contracts/token/ERC721/ERC721.sol\";\ncontract Bear is Ownable, ERC721 {\n    struct Metadata {\n        string URI;\n        uint256 rarity;\n    }\n    mapping(uint256 => Metadata) id_to_bear_token;\n    string private _currentBaseURI;\n    uint256 private _tokenIds = 0;\n    uint256 private MAX_GIVE_AWAY = 120;\n    uint256 private PRE_SALE = 1000;\n    uint256 private MAX_NFTS =10000;\n    bool private PRE_SALE_ON;\n\n\n    string private _immutableIPFSBucket;\n    string private _mutableIPFSBucket;\n    \n    constructor() ERC721(\"Polar Pals\", \"PALS\") {\n        // mintBatch('test', 2, MAX_GIVE_AWAY);\n        setBaseURI('ipfs://');\n    }\n    function startPreSale() public onlyOwner {\n            PRE_SALE_ON = true;\n    }\n    function stopPreSale() public onlyOwner {\n            PRE_SALE_ON = false;\n    }\n\n    function setImmutableIPFSBucket(string memory immutableIPFSBucket_) public onlyOwner {\n        require(bytes(_immutableIPFSBucket).length == 0, \"This IPFS bucket is immuable and can only be set once.\");\n        _immutableIPFSBucket = immutableIPFSBucket_;\n    }\n\n    function setMutableIPFSBucket(string memory mutableIPFSBucket_) public onlyOwner {\n        _mutableIPFSBucket = mutableIPFSBucket_;\n    }\n\n    function getCurrentNFTAmount() public  returns (uint256){\n        return MAX_NFTS;\n    }\n    function getPreSaleNFTAmount() public   returns (uint256){\n        return PRE_SALE;\n    }\n    \n    function setBaseURI(string memory baseURI) public onlyOwner {\n        _currentBaseURI = baseURI;\n        _setBaseURI(_currentBaseURI);\n    }\n    function _baseURI() public view virtual  returns (string memory) {\n        return _currentBaseURI;\n    }\n    function mintNFT(string memory tokenURI, uint256 rarity) internal returns (uint256) {\n       _tokenIds = _tokenIds + 1;\n       uint256 newItemId = _tokenIds;\n       _safeMint(msg.sender, newItemId);\n       \n       _setTokenURI(newItemId, tokenURI );\n        if(PRE_SALE_ON){\n             PRE_SALE = PRE_SALE -1 ;\n        }\n       else MAX_NFTS = MAX_NFTS - 1;\n       return newItemId;\n   }\n    function claim( string memory tokenURI) external payable returns (uint256){\n        require(MAX_NFTS > 0);\n        require(msg.value == 0.069 ether, \"claiming 0.069 ether\");\n        if(PRE_SALE_ON){\n            require(PRE_SALE>0);\n        }\n        uint256 rarity = 2; // This should generated based on the probablity map \n        uint256 id = mintNFT(tokenURI,rarity);\n        payable(owner()).transfer(0.069 ether);\n        return id;\n    }\n    function claim_2( string memory tokenURI) external payable returns (uint256[] memory){\n        require(MAX_NFTS > 0);\n        require(msg.value == 0.138 ether, \"claiming 0.138 ether\");\n          if(PRE_SALE_ON){\n            require(PRE_SALE>0);\n        }\n        uint256 rarity = 2; // This should generated based on the probablity map \n        uint256[] memory id = mintBatch(tokenURI,rarity,2);\n        payable(owner()).transfer(0.138 ether);\n        return id;\n    }\n    function claim_5( string memory tokenURI) external payable returns (uint256[] memory){\n        require(MAX_NFTS > 0);\n        require(msg.value == 0.345 ether, \"claiming 0.345 ether\");\n          if(PRE_SALE_ON){\n            require(PRE_SALE>0);\n        }\n        uint256 rarity = 2; // This should generated based on the probablity map \n        uint256[] memory id = mintBatch(tokenURI,rarity,5);\n        payable(owner()).transfer(0.345 ether);\n        return id;\n    }\n    function claim_10(string memory tokenURI) external payable returns (uint256[] memory){\n        require(MAX_NFTS > 0);\n        require(msg.value == 0.69 ether, \"claiming 0.69 ether\");\n          if(PRE_SALE_ON){\n            require(PRE_SALE>0,\"Out of PRE_SALE Tokens\");\n        }\n        uint256 rarity = 2; // This should generated based on the probablity map \n        uint256[] memory id = mintBatch(tokenURI,rarity,10);\n        payable(owner()).transfer(0.69 ether);\n        return id;\n    }\n    function claim_20(string memory tokenURI) external payable returns (uint256[] memory){\n        require(MAX_NFTS > 0);\n        require(msg.value == 1.38 ether, \"claiming 0.20 ether\");\n        require(PRE_SALE_ON == false);\n        uint256 rarity = 2; // This should generated based on the probablity map \n        uint256[] memory id = mintBatch(tokenURI,rarity,20);\n        payable(owner()).transfer(1.38  ether);\n        return id;\n    }\n    function claim_10_GiveAway(string memory tokenURI) onlyOwner external returns (uint256[] memory){\n        require(MAX_NFTS > 0);\n        uint256 rarity = 2; // This should generated based on the probablity map \n        uint256[] memory id = mintBatch(tokenURI,rarity,10);\n        return id;\n    }\n    function mintBatch( string memory tokenURI,uint256 rarity,uint256 numberOfTokens) private returns (uint256[] memory){\n        uint256[] memory NFT_ID_ARRAY = new uint256[](numberOfTokens);\n        for(uint temp = 0; temp < numberOfTokens; temp++) {\n             uint256 id = mintNFT(tokenURI,rarity);\n             NFT_ID_ARRAY[temp] = id;   \n        }\n        return NFT_ID_ARRAY;\n    }\n    function bytes32ToString(bytes32 _bytes32) internal pure returns (string memory) {\n        uint8 i = 0;\n        while(i < 32 && _bytes32[i] != 0) {\n            i++;\n        }\n        bytes memory bytesArray = new bytes(i);\n        for (i = 0; i < 32 && _bytes32[i] != 0; i++) {\n            bytesArray[i] = _bytes32[i];\n        }\n        return string(bytesArray);\n    }\n\n    \n\n\n}",
  "sourcePath": "/Users/safiullah/Documents/Projects/bear_contracts/contracts/Bear.sol",
  "compiler": {
    "name": "solc",
    "version": "0.7.0+commit.9e61f92b.Emscripten.clang"
  },
  "schemaVersion": "3.0.23",
  "updatedAt": "2021-08-30T18:46:01.059Z",
  "devdoc": {
    "kind": "dev",
    "methods": {
      "approve(address,uint256)": {
        "details": "See {IERC721-approve}."
      },
      "balanceOf(address)": {
        "details": "See {IERC721-balanceOf}."
      },
      "baseURI()": {
        "details": "Returns the base URI set via {_setBaseURI}. This will be automatically added as a prefix in {tokenURI} to each token's URI, or to the token ID if no specific URI is set for that token ID."
      },
      "getApproved(uint256)": {
        "details": "See {IERC721-getApproved}."
      },
      "isApprovedForAll(address,address)": {
        "details": "See {IERC721-isApprovedForAll}."
      },
      "name()": {
        "details": "See {IERC721Metadata-name}."
      },
      "owner()": {
        "details": "Returns the address of the current owner."
      },
      "ownerOf(uint256)": {
        "details": "See {IERC721-ownerOf}."
      },
      "renounceOwnership()": {
        "details": "Leaves the contract without owner. It will not be possible to call `onlyOwner` functions anymore. Can only be called by the current owner. NOTE: Renouncing ownership will leave the contract without an owner, thereby removing any functionality that is only available to the owner."
      },
      "safeTransferFrom(address,address,uint256)": {
        "details": "See {IERC721-safeTransferFrom}."
      },
      "safeTransferFrom(address,address,uint256,bytes)": {
        "details": "See {IERC721-safeTransferFrom}."
      },
      "setApprovalForAll(address,bool)": {
        "details": "See {IERC721-setApprovalForAll}."
      },
      "supportsInterface(bytes4)": {
        "details": "See {IERC165-supportsInterface}. Time complexity O(1), guaranteed to always use less than 30 000 gas."
      },
      "symbol()": {
        "details": "See {IERC721Metadata-symbol}."
      },
      "tokenByIndex(uint256)": {
        "details": "See {IERC721Enumerable-tokenByIndex}."
      },
      "tokenOfOwnerByIndex(address,uint256)": {
        "details": "See {IERC721Enumerable-tokenOfOwnerByIndex}."
      },
      "tokenURI(uint256)": {
        "details": "See {IERC721Metadata-tokenURI}."
      },
      "totalSupply()": {
        "details": "See {IERC721Enumerable-totalSupply}."
      },
      "transferFrom(address,address,uint256)": {
        "details": "See {IERC721-transferFrom}."
      },
      "transferOwnership(address)": {
        "details": "Transfers ownership of the contract to a new account (`newOwner`). Can only be called by the current owner."
      }
    },
    "version": 1
  },
  "userdoc": {
    "kind": "user",
    "methods": {},
    "version": 1
  }
}