{
  "contractName": "Bear",
  "abi": [
    {
      "inputs": [],
      "stateMutability": "nonpayable",
      "type": "constructor"
    },
    {
      "anonymous": false,
      "inputs": [
        {
          "indexed": true,
          "internalType": "address",
          "name": "owner",
          "type": "address"
        },
        {
          "indexed": true,
          "internalType": "address",
          "name": "approved",
          "type": "address"
        },
        {
          "indexed": true,
          "internalType": "uint256",
          "name": "tokenId",
          "type": "uint256"
        }
      ],
      "name": "Approval",
      "type": "event"
    },
    {
      "anonymous": false,
      "inputs": [
        {
          "indexed": true,
          "internalType": "address",
          "name": "owner",
          "type": "address"
        },
        {
          "indexed": true,
          "internalType": "address",
          "name": "operator",
          "type": "address"
        },
        {
          "indexed": false,
          "internalType": "bool",
          "name": "approved",
          "type": "bool"
        }
      ],
      "name": "ApprovalForAll",
      "type": "event"
    },
    {
      "anonymous": false,
      "inputs": [
        {
          "indexed": true,
          "internalType": "address",
          "name": "previousOwner",
          "type": "address"
        },
        {
          "indexed": true,
          "internalType": "address",
          "name": "newOwner",
          "type": "address"
        }
      ],
      "name": "OwnershipTransferred",
      "type": "event"
    },
    {
      "anonymous": false,
      "inputs": [
        {
          "indexed": true,
          "internalType": "address",
          "name": "from",
          "type": "address"
        },
        {
          "indexed": true,
          "internalType": "address",
          "name": "to",
          "type": "address"
        },
        {
          "indexed": true,
          "internalType": "uint256",
          "name": "tokenId",
          "type": "uint256"
        }
      ],
      "name": "Transfer",
      "type": "event"
    },
    {
      "inputs": [
        {
          "internalType": "address",
          "name": "to",
          "type": "address"
        },
        {
          "internalType": "uint256",
          "name": "tokenId",
          "type": "uint256"
        }
      ],
      "name": "approve",
      "outputs": [],
      "stateMutability": "nonpayable",
      "type": "function"
    },
    {
      "inputs": [
        {
          "internalType": "address",
          "name": "owner",
          "type": "address"
        }
      ],
      "name": "balanceOf",
      "outputs": [
        {
          "internalType": "uint256",
          "name": "",
          "type": "uint256"
        }
      ],
      "stateMutability": "view",
      "type": "function",
      "constant": true
    },
    {
      "inputs": [],
      "name": "baseURI",
      "outputs": [
        {
          "internalType": "string",
          "name": "",
          "type": "string"
        }
      ],
      "stateMutability": "view",
      "type": "function",
      "constant": true
    },
    {
      "inputs": [
        {
          "internalType": "uint256",
          "name": "tokenId",
          "type": "uint256"
        }
      ],
      "name": "getApproved",
      "outputs": [
        {
          "internalType": "address",
          "name": "",
          "type": "address"
        }
      ],
      "stateMutability": "view",
      "type": "function",
      "constant": true
    },
    {
      "inputs": [
        {
          "internalType": "address",
          "name": "owner",
          "type": "address"
        },
        {
          "internalType": "address",
          "name": "operator",
          "type": "address"
        }
      ],
      "name": "isApprovedForAll",
      "outputs": [
        {
          "internalType": "bool",
          "name": "",
          "type": "bool"
        }
      ],
      "stateMutability": "view",
      "type": "function",
      "constant": true
    },
    {
      "inputs": [],
      "name": "name",
      "outputs": [
        {
          "internalType": "string",
          "name": "",
          "type": "string"
        }
      ],
      "stateMutability": "view",
      "type": "function",
      "constant": true
    },
    {
      "inputs": [],
      "name": "owner",
      "outputs": [
        {
          "internalType": "address",
          "name": "",
          "type": "address"
        }
      ],
      "stateMutability": "view",
      "type": "function",
      "constant": true
    },
    {
      "inputs": [
        {
          "internalType": "uint256",
          "name": "tokenId",
          "type": "uint256"
        }
      ],
      "name": "ownerOf",
      "outputs": [
        {
          "internalType": "address",
          "name": "",
          "type": "address"
        }
      ],
      "stateMutability": "view",
      "type": "function",
      "constant": true
    },
    {
      "inputs": [],
      "name": "renounceOwnership",
      "outputs": [],
      "stateMutability": "nonpayable",
      "type": "function"
    },
    {
      "inputs": [
        {
          "internalType": "address",
          "name": "from",
          "type": "address"
        },
        {
          "internalType": "address",
          "name": "to",
          "type": "address"
        },
        {
          "internalType": "uint256",
          "name": "tokenId",
          "type": "uint256"
        }
      ],
      "name": "safeTransferFrom",
      "outputs": [],
      "stateMutability": "nonpayable",
      "type": "function"
    },
    {
      "inputs": [
        {
          "internalType": "address",
          "name": "from",
          "type": "address"
        },
        {
          "internalType": "address",
          "name": "to",
          "type": "address"
        },
        {
          "internalType": "uint256",
          "name": "tokenId",
          "type": "uint256"
        },
        {
          "internalType": "bytes",
          "name": "_data",
          "type": "bytes"
        }
      ],
      "name": "safeTransferFrom",
      "outputs": [],
      "stateMutability": "nonpayable",
      "type": "function"
    },
    {
      "inputs": [
        {
          "internalType": "address",
          "name": "operator",
          "type": "address"
        },
        {
          "internalType": "bool",
          "name": "approved",
          "type": "bool"
        }
      ],
      "name": "setApprovalForAll",
      "outputs": [],
      "stateMutability": "nonpayable",
      "type": "function"
    },
    {
      "inputs": [
        {
          "internalType": "bytes4",
          "name": "interfaceId",
          "type": "bytes4"
        }
      ],
      "name": "supportsInterface",
      "outputs": [
        {
          "internalType": "bool",
          "name": "",
          "type": "bool"
        }
      ],
      "stateMutability": "view",
      "type": "function",
      "constant": true
    },
    {
      "inputs": [],
      "name": "symbol",
      "outputs": [
        {
          "internalType": "string",
          "name": "",
          "type": "string"
        }
      ],
      "stateMutability": "view",
      "type": "function",
      "constant": true
    },
    {
      "inputs": [
        {
          "internalType": "uint256",
          "name": "index",
          "type": "uint256"
        }
      ],
      "name": "tokenByIndex",
      "outputs": [
        {
          "internalType": "uint256",
          "name": "",
          "type": "uint256"
        }
      ],
      "stateMutability": "view",
      "type": "function",
      "constant": true
    },
    {
      "inputs": [
        {
          "internalType": "address",
          "name": "owner",
          "type": "address"
        },
        {
          "internalType": "uint256",
          "name": "index",
          "type": "uint256"
        }
      ],
      "name": "tokenOfOwnerByIndex",
      "outputs": [
        {
          "internalType": "uint256",
          "name": "",
          "type": "uint256"
        }
      ],
      "stateMutability": "view",
      "type": "function",
      "constant": true
    },
    {
      "inputs": [
        {
          "internalType": "uint256",
          "name": "tokenId",
          "type": "uint256"
        }
      ],
      "name": "tokenURI",
      "outputs": [
        {
          "internalType": "string",
          "name": "",
          "type": "string"
        }
      ],
      "stateMutability": "view",
      "type": "function",
      "constant": true
    },
    {
      "inputs": [],
      "name": "totalSupply",
      "outputs": [
        {
          "internalType": "uint256",
          "name": "",
          "type": "uint256"
        }
      ],
      "stateMutability": "view",
      "type": "function",
      "constant": true
    },
    {
      "inputs": [
        {
          "internalType": "address",
          "name": "from",
          "type": "address"
        },
        {
          "internalType": "address",
          "name": "to",
          "type": "address"
        },
        {
          "internalType": "uint256",
          "name": "tokenId",
          "type": "uint256"
        }
      ],
      "name": "transferFrom",
      "outputs": [],
      "stateMutability": "nonpayable",
      "type": "function"
    },
    {
      "inputs": [
        {
          "internalType": "address",
          "name": "newOwner",
          "type": "address"
        }
      ],
      "name": "transferOwnership",
      "outputs": [],
      "stateMutability": "nonpayable",
      "type": "function"
    },
    {
      "inputs": [],
      "name": "startPreSale",
      "outputs": [],
      "stateMutability": "nonpayable",
      "type": "function"
    },
    {
      "inputs": [],
      "name": "stopPreSale",
      "outputs": [],
      "stateMutability": "nonpayable",
      "type": "function"
    },
    {
      "inputs": [],
      "name": "getCurrentNFTAmount",
      "outputs": [
        {
          "internalType": "uint256",
          "name": "",
          "type": "uint256"
        }
      ],
      "stateMutability": "nonpayable",
      "type": "function"
    },
    {
      "inputs": [],
      "name": "getPreSaleNFTAmount",
      "outputs": [
        {
          "internalType": "uint256",
          "name": "",
          "type": "uint256"
        }
      ],
      "stateMutability": "nonpayable",
      "type": "function"
    },
    {
      "inputs": [
        {
          "internalType": "string",
          "name": "baseURI",
          "type": "string"
        }
      ],
      "name": "setBaseURI",
      "outputs": [],
      "stateMutability": "nonpayable",
      "type": "function"
    },
    {
      "inputs": [],
      "name": "_baseURI",
      "outputs": [
        {
          "internalType": "string",
          "name": "",
          "type": "string"
        }
      ],
      "stateMutability": "view",
      "type": "function",
      "constant": true
    },
    {
      "inputs": [
        {
          "internalType": "string",
          "name": "tokenURI",
          "type": "string"
        }
      ],
      "name": "claim",
      "outputs": [
        {
          "internalType": "uint256",
          "name": "",
          "type": "uint256"
        }
      ],
      "stateMutability": "payable",
      "type": "function",
      "payable": true
    },
    {
      "inputs": [
        {
          "internalType": "string",
          "name": "tokenURI",
          "type": "string"
        }
      ],
      "name": "claim_2",
      "outputs": [
        {
          "internalType": "uint256[]",
          "name": "",
          "type": "uint256[]"
        }
      ],
      "stateMutability": "payable",
      "type": "function",
      "payable": true
    },
    {
      "inputs": [
        {
          "internalType": "string",
          "name": "tokenURI",
          "type": "string"
        }
      ],
      "name": "claim_5",
      "outputs": [
        {
          "internalType": "uint256[]",
          "name": "",
          "type": "uint256[]"
        }
      ],
      "stateMutability": "payable",
      "type": "function",
      "payable": true
    },
    {
      "inputs": [
        {
          "internalType": "string",
          "name": "tokenURI",
          "type": "string"
        }
      ],
      "name": "claim_10",
      "outputs": [
        {
          "internalType": "uint256[]",
          "name": "",
          "type": "uint256[]"
        }
      ],
      "stateMutability": "payable",
      "type": "function",
      "payable": true
    },
    {
      "inputs": [
        {
          "internalType": "string",
          "name": "tokenURI",
          "type": "string"
        }
      ],
      "name": "claim_20",
      "outputs": [
        {
          "internalType": "uint256[]",
          "name": "",
          "type": "uint256[]"
        }
      ],
      "stateMutability": "payable",
      "type": "function",
      "payable": true
    },
    {
      "inputs": [
        {
          "internalType": "string",
          "name": "tokenURI",
          "type": "string"
        }
      ],
      "name": "claim_10_GiveAway",
      "outputs": [
        {
          "internalType": "uint256[]",
          "name": "",
          "type": "uint256[]"
        }
      ],
      "stateMutability": "nonpayable",
      "type": "function"
    }
  ],
  "bytecode": "0x60806040526000600d556078600e556103e8600f556127106010553480156200002757600080fd5b506040518060400160405280600a81526020017f506f6c61722050616c73000000000000000000000000000000000000000000008152506040518060400160405280600481526020017f50414c53000000000000000000000000000000000000000000000000000000008152506000620000a6620001de60201b60201c565b9050806000806101000a81548173ffffffffffffffffffffffffffffffffffffffff021916908373ffffffffffffffffffffffffffffffffffffffff1602179055508073ffffffffffffffffffffffffffffffffffffffff16600073ffffffffffffffffffffffffffffffffffffffff167f8be0079c531659141344cd1fd0a4f28419497f9722a3daafe3b4186f6b6457e060405160405180910390a3506200015c6301ffc9a760e01b620001e660201b60201c565b816007908051906020019062000174929190620002ef565b5080600890805190602001906200018d929190620002ef565b50620001a66380ac58cd60e01b620001e660201b60201c565b620001be635b5e139f60e01b620001e660201b60201c565b620001d663780e9d6360e01b620001e660201b60201c565b505062000395565b600033905090565b63ffffffff60e01b817bffffffffffffffffffffffffffffffffffffffffffffffffffffffff1916141562000283576040517f08c379a000000000000000000000000000000000000000000000000000000000815260040180806020018281038252601c8152602001807f4552433136353a20696e76616c696420696e746572666163652069640000000081525060200191505060405180910390fd5b6001806000837bffffffffffffffffffffffffffffffffffffffffffffffffffffffff19167bffffffffffffffffffffffffffffffffffffffffffffffffffffffff1916815260200190815260200160002060006101000a81548160ff02191690831515021790555050565b828054600181600116156101000203166002900490600052602060002090601f016020900481019282601f106200033257805160ff191683800117855562000363565b8280016001018555821562000363579182015b828111156200036257825182559160200191906001019062000345565b5b50905062000372919062000376565b5090565b5b808211156200039157600081600090555060010162000377565b5090565b6144ee80620003a56000396000f3fe6080604052600436106101e35760003560e01c80636c0360eb11610102578063a22cb46511610095578063e985e9c511610064578063e985e9c51461110e578063f2fde38b14611195578063f3fe12c9146111e6578063f8fb3366146112b5576101e3565b8063a22cb46514610ddb578063b88d4fde14610e38578063c87b56dd14610f4a578063cd46c89e14610ffe576101e3565b806374aaa5b3116100d157806374aaa5b314610bcf5780638da5cb5b14610bfa57806395d89b4114610c3b57806397bfe3bd14610ccb576101e3565b80636c0360eb14610a3357806370a0823114610ac3578063715018a614610b28578063743976a014610b3f576101e3565b806342842e0e1161017a5780635a01b5f3116101495780635a01b5f3146107765780635edf61b5146108935780636352211e146108be57806363f1e0a314610923576101e3565b806342842e0e146105cd5780634f6ccce71461064857806355dd574c1461069757806355f804b3146106ae576101e3565b806318160ddd116101b657806318160ddd146103a857806323b872dd146103d35780632c73c0811461044e5780632f745c591461055e576101e3565b806301ffc9a7146101e857806306fdde0314610258578063081812fc146102e8578063095ea7b31461034d575b600080fd5b3480156101f457600080fd5b506102406004803603602081101561020b57600080fd5b8101908080357bffffffffffffffffffffffffffffffffffffffffffffffffffffffff191690602001909291905050506112cc565b60405180821515815260200191505060405180910390f35b34801561026457600080fd5b5061026d611334565b6040518080602001828103825283818151815260200191508051906020019080838360005b838110156102ad578082015181840152602081019050610292565b50505050905090810190601f1680156102da5780820380516001836020036101000a031916815260200191505b509250505060405180910390f35b3480156102f457600080fd5b506103216004803603602081101561030b57600080fd5b81019080803590602001909291905050506113d6565b604051808273ffffffffffffffffffffffffffffffffffffffff16815260200191505060405180910390f35b34801561035957600080fd5b506103a66004803603604081101561037057600080fd5b81019080803573ffffffffffffffffffffffffffffffffffffffff16906020019092919080359060200190929190505050611471565b005b3480156103b457600080fd5b506103bd6115b5565b6040518082815260200191505060405180910390f35b3480156103df57600080fd5b5061044c600480360360608110156103f657600080fd5b81019080803573ffffffffffffffffffffffffffffffffffffffff169060200190929190803573ffffffffffffffffffffffffffffffffffffffff169060200190929190803590602001909291905050506115c6565b005b6105076004803603602081101561046457600080fd5b810190808035906020019064010000000081111561048157600080fd5b82018360208201111561049357600080fd5b803590602001918460018302840111640100000000831117156104b557600080fd5b91908080601f016020809104026020016040519081016040528093929190818152602001838380828437600081840152601f19601f82011690508083019250505050505050919291929050505061163c565b6040518080602001828103825283818151815260200191508051906020019060200280838360005b8381101561054a57808201518184015260208101905061052f565b505050509050019250505060405180910390f35b34801561056a57600080fd5b506105b76004803603604081101561058157600080fd5b81019080803573ffffffffffffffffffffffffffffffffffffffff16906020019092919080359060200190929190505050611765565b6040518082815260200191505060405180910390f35b3480156105d957600080fd5b50610646600480360360608110156105f057600080fd5b81019080803573ffffffffffffffffffffffffffffffffffffffff169060200190929190803573ffffffffffffffffffffffffffffffffffffffff169060200190929190803590602001909291905050506117c0565b005b34801561065457600080fd5b506106816004803603602081101561066b57600080fd5b81019080803590602001909291905050506117e0565b6040518082815260200191505060405180910390f35b3480156106a357600080fd5b506106ac611803565b005b3480156106ba57600080fd5b50610774600480360360208110156106d157600080fd5b81019080803590602001906401000000008111156106ee57600080fd5b82018360208201111561070057600080fd5b8035906020019184600183028401116401000000008311171561072257600080fd5b91908080601f016020809104026020016040519081016040528093929190818152602001838380828437600081840152601f19601f8201169050808301925050505050505091929192905050506118cf565b005b34801561078257600080fd5b5061083c6004803603602081101561079957600080fd5b81019080803590602001906401000000008111156107b657600080fd5b8201836020820111156107c857600080fd5b803590602001918460018302840111640100000000831117156107ea57600080fd5b91908080601f016020809104026020016040519081016040528093929190818152602001838380828437600081840152601f19601f820116905080830192505050505050509192919290505050611a3b565b6040518080602001828103825283818151815260200191508051906020019060200280838360005b8381101561087f578082015181840152602081019050610864565b505050509050019250505060405180910390f35b34801561089f57600080fd5b506108a8611b1b565b6040518082815260200191505060405180910390f35b3480156108ca57600080fd5b506108f7600480360360208110156108e157600080fd5b8101908080359060200190929190505050611b25565b604051808273ffffffffffffffffffffffffffffffffffffffff16815260200191505060405180910390f35b6109dc6004803603602081101561093957600080fd5b810190808035906020019064010000000081111561095657600080fd5b82018360208201111561096857600080fd5b8035906020019184600183028401116401000000008311171561098a57600080fd5b91908080601f016020809104026020016040519081016040528093929190818152602001838380828437600081840152601f19601f820116905080830192505050505050509192919290505050611b5c565b6040518080602001828103825283818151815260200191508051906020019060200280838360005b83811015610a1f578082015181840152602081019050610a04565b505050509050019250505060405180910390f35b348015610a3f57600080fd5b50610a48611cee565b6040518080602001828103825283818151815260200191508051906020019080838360005b83811015610a88578082015181840152602081019050610a6d565b50505050905090810190601f168015610ab55780820380516001836020036101000a031916815260200191505b509250505060405180910390f35b348015610acf57600080fd5b50610b1260048036036020811015610ae657600080fd5b81019080803573ffffffffffffffffffffffffffffffffffffffff169060200190929190505050611d90565b6040518082815260200191505060405180910390f35b348015610b3457600080fd5b50610b3d611e65565b005b348015610b4b57600080fd5b50610b54611fd2565b6040518080602001828103825283818151815260200191508051906020019080838360005b83811015610b94578082015181840152602081019050610b79565b50505050905090810190601f168015610bc15780820380516001836020036101000a031916815260200191505b509250505060405180910390f35b348015610bdb57600080fd5b50610be4612074565b6040518082815260200191505060405180910390f35b348015610c0657600080fd5b50610c0f61207e565b604051808273ffffffffffffffffffffffffffffffffffffffff16815260200191505060405180910390f35b348015610c4757600080fd5b50610c506120a7565b6040518080602001828103825283818151815260200191508051906020019080838360005b83811015610c90578082015181840152602081019050610c75565b50505050905090810190601f168015610cbd5780820380516001836020036101000a031916815260200191505b509250505060405180910390f35b610d8460048036036020811015610ce157600080fd5b8101908080359060200190640100000000811115610cfe57600080fd5b820183602082011115610d1057600080fd5b80359060200191846001830284011164010000000083111715610d3257600080fd5b91908080601f016020809104026020016040519081016040528093929190818152602001838380828437600081840152601f19601f820116905080830192505050505050509192919290505050612149565b6040518080602001828103825283818151815260200191508051906020019060200280838360005b83811015610dc7578082015181840152602081019050610dac565b505050509050019250505060405180910390f35b348015610de757600080fd5b50610e3660048036036040811015610dfe57600080fd5b81019080803573ffffffffffffffffffffffffffffffffffffffff169060200190929190803515159060200190929190505050612272565b005b348015610e4457600080fd5b50610f4860048036036080811015610e5b57600080fd5b81019080803573ffffffffffffffffffffffffffffffffffffffff169060200190929190803573ffffffffffffffffffffffffffffffffffffffff1690602001909291908035906020019092919080359060200190640100000000811115610ec257600080fd5b820183602082011115610ed457600080fd5b80359060200191846001830284011164010000000083111715610ef657600080fd5b91908080601f016020809104026020016040519081016040528093929190818152602001838380828437600081840152601f19601f820116905080830192505050505050509192919290505050612428565b005b348015610f5657600080fd5b50610f8360048036036020811015610f6d57600080fd5b81019080803590602001909291905050506124a0565b6040518080602001828103825283818151815260200191508051906020019080838360005b83811015610fc3578082015181840152602081019050610fa8565b50505050905090810190601f168015610ff05780820380516001836020036101000a031916815260200191505b509250505060405180910390f35b6110b76004803603602081101561101457600080fd5b810190808035906020019064010000000081111561103157600080fd5b82018360208201111561104357600080fd5b8035906020019184600183028401116401000000008311171561106557600080fd5b91908080601f016020809104026020016040519081016040528093929190818152602001838380828437600081840152601f19601f820116905080830192505050505050509192919290505050612771565b6040518080602001828103825283818151815260200191508051906020019060200280838360005b838110156110fa5780820151818401526020810190506110df565b505050509050019250505060405180910390f35b34801561111a57600080fd5b5061117d6004803603604081101561113157600080fd5b81019080803573ffffffffffffffffffffffffffffffffffffffff169060200190929190803573ffffffffffffffffffffffffffffffffffffffff169060200190929190505050612895565b60405180821515815260200191505060405180910390f35b3480156111a157600080fd5b506111e4600480360360208110156111b857600080fd5b81019080803573ffffffffffffffffffffffffffffffffffffffff169060200190929190505050612929565b005b61129f600480360360208110156111fc57600080fd5b810190808035906020019064010000000081111561121957600080fd5b82018360208201111561122b57600080fd5b8035906020019184600183028401116401000000008311171561124d57600080fd5b91908080601f016020809104026020016040519081016040528093929190818152602001838380828437600081840152601f19601f820116905080830192505050505050509192919290505050612b1b565b6040518082815260200191505060405180910390f35b3480156112c157600080fd5b506112ca612c3f565b005b600060016000837bffffffffffffffffffffffffffffffffffffffffffffffffffffffff19167bffffffffffffffffffffffffffffffffffffffffffffffffffffffff1916815260200190815260200160002060009054906101000a900460ff169050919050565b606060078054600181600116156101000203166002900480601f0160208091040260200160405190810160405280929190818152602001828054600181600116156101000203166002900480156113cc5780601f106113a1576101008083540402835291602001916113cc565b820191906000526020600020905b8154815290600101906020018083116113af57829003601f168201915b5050505050905090565b60006113e182612d0b565b611436576040517f08c379a000000000000000000000000000000000000000000000000000000000815260040180806020018281038252602c8152602001806143b7602c913960400191505060405180910390fd5b6005600083815260200190815260200160002060009054906101000a900473ffffffffffffffffffffffffffffffffffffffff169050919050565b600061147c82611b25565b90508073ffffffffffffffffffffffffffffffffffffffff168373ffffffffffffffffffffffffffffffffffffffff161415611503576040517f08c379a00000000000000000000000000000000000000000000000000000000081526004018080602001828103825260218152602001806144676021913960400191505060405180910390fd5b8073ffffffffffffffffffffffffffffffffffffffff16611522612d28565b73ffffffffffffffffffffffffffffffffffffffff16148061155157506115508161154b612d28565b612895565b5b6115a6576040517f08c379a000000000000000000000000000000000000000000000000000000000815260040180806020018281038252603881526020018061430a6038913960400191505060405180910390fd5b6115b08383612d30565b505050565b60006115c16003612de9565b905090565b6115d76115d1612d28565b82612dfe565b61162c576040517f08c379a00000000000000000000000000000000000000000000000000000000081526004018080602001828103825260318152602001806144886031913960400191505060405180910390fd5b611637838383612ef2565b505050565b606060006010541161164d57600080fd5b6704c9afac0f82800034146116ca576040517f08c379a00000000000000000000000000000000000000000000000000000000081526004018080602001828103825260148152602001807f636c61696d696e6720302e33343520657468657200000000000000000000000081525060200191505060405180910390fd5b601160009054906101000a900460ff16156116ef576000600f54116116ee57600080fd5b5b600060029050606061170384836005613135565b905061170d61207e565b73ffffffffffffffffffffffffffffffffffffffff166108fc6704c9afac0f8280009081150290604051600060405180830381858888f1935050505015801561175a573d6000803e3d6000fd5b508092505050919050565b60006117b882600260008673ffffffffffffffffffffffffffffffffffffffff1673ffffffffffffffffffffffffffffffffffffffff1681526020019081526020016000206131cd90919063ffffffff16565b905092915050565b6117db83838360405180602001604052806000815250612428565b505050565b6000806117f78360036131e790919063ffffffff16565b50905080915050919050565b61180b612d28565b73ffffffffffffffffffffffffffffffffffffffff1661182961207e565b73ffffffffffffffffffffffffffffffffffffffff16146118b2576040517f08c379a00000000000000000000000000000000000000000000000000000000081526004018080602001828103825260208152602001807f4f776e61626c653a2063616c6c6572206973206e6f7420746865206f776e657281525060200191505060405180910390fd5b6001601160006101000a81548160ff021916908315150217905550565b6118d7612d28565b73ffffffffffffffffffffffffffffffffffffffff166118f561207e565b73ffffffffffffffffffffffffffffffffffffffff161461197e576040517f08c379a00000000000000000000000000000000000000000000000000000000081526004018080602001828103825260208152602001807f4f776e61626c653a2063616c6c6572206973206e6f7420746865206f776e657281525060200191505060405180910390fd5b80600c908051906020019061199492919061417c565b50611a38600c8054600181600116156101000203166002900480601f016020809104026020016040519081016040528092919081815260200182805460018160011615610100020316600290048015611a2e5780601f10611a0357610100808354040283529160200191611a2e565b820191906000526020600020905b815481529060010190602001808311611a1157829003601f168201915b5050505050613213565b50565b6060611a45612d28565b73ffffffffffffffffffffffffffffffffffffffff16611a6361207e565b73ffffffffffffffffffffffffffffffffffffffff1614611aec576040517f08c379a00000000000000000000000000000000000000000000000000000000081526004018080602001828103825260208152602001807f4f776e61626c653a2063616c6c6572206973206e6f7420746865206f776e657281525060200191505060405180910390fd5b600060105411611afb57600080fd5b6000600290506060611b0f8483600a613135565b90508092505050919050565b6000601054905090565b6000611b558260405180606001604052806029815260200161436c60299139600361322d9092919063ffffffff16565b9050919050565b6060600060105411611b6d57600080fd5b6709935f581f0500003414611bea576040517f08c379a00000000000000000000000000000000000000000000000000000000081526004018080602001828103825260138152602001807f636c61696d696e6720302e36392065746865720000000000000000000000000081525060200191505060405180910390fd5b601160009054906101000a900460ff1615611c78576000600f5411611c77576040517f08c379a00000000000000000000000000000000000000000000000000000000081526004018080602001828103825260168152602001807f4f7574206f66205052455f53414c4520546f6b656e730000000000000000000081525060200191505060405180910390fd5b5b6000600290506060611c8c8483600a613135565b9050611c9661207e565b73ffffffffffffffffffffffffffffffffffffffff166108fc6709935f581f0500009081150290604051600060405180830381858888f19350505050158015611ce3573d6000803e3d6000fd5b508092505050919050565b6060600a8054600181600116156101000203166002900480601f016020809104026020016040519081016040528092919081815260200182805460018160011615610100020316600290048015611d865780601f10611d5b57610100808354040283529160200191611d86565b820191906000526020600020905b815481529060010190602001808311611d6957829003601f168201915b5050505050905090565b60008073ffffffffffffffffffffffffffffffffffffffff168273ffffffffffffffffffffffffffffffffffffffff161415611e17576040517f08c379a000000000000000000000000000000000000000000000000000000000815260040180806020018281038252602a815260200180614342602a913960400191505060405180910390fd5b611e5e600260008473ffffffffffffffffffffffffffffffffffffffff1673ffffffffffffffffffffffffffffffffffffffff16815260200190815260200160002061324c565b9050919050565b611e6d612d28565b73ffffffffffffffffffffffffffffffffffffffff16611e8b61207e565b73ffffffffffffffffffffffffffffffffffffffff1614611f14576040517f08c379a00000000000000000000000000000000000000000000000000000000081526004018080602001828103825260208152602001807f4f776e61626c653a2063616c6c6572206973206e6f7420746865206f776e657281525060200191505060405180910390fd5b600073ffffffffffffffffffffffffffffffffffffffff1660008054906101000a900473ffffffffffffffffffffffffffffffffffffffff1673ffffffffffffffffffffffffffffffffffffffff167f8be0079c531659141344cd1fd0a4f28419497f9722a3daafe3b4186f6b6457e060405160405180910390a360008060006101000a81548173ffffffffffffffffffffffffffffffffffffffff021916908373ffffffffffffffffffffffffffffffffffffffff160217905550565b6060600c8054600181600116156101000203166002900480601f01602080910402602001604051908101604052809291908181526020018280546001816001161561010002031660029004801561206a5780601f1061203f5761010080835404028352916020019161206a565b820191906000526020600020905b81548152906001019060200180831161204d57829003601f168201915b5050505050905090565b6000600f54905090565b60008060009054906101000a900473ffffffffffffffffffffffffffffffffffffffff16905090565b606060088054600181600116156101000203166002900480601f01602080910402602001604051908101604052809291908181526020018280546001816001161561010002031660029004801561213f5780601f106121145761010080835404028352916020019161213f565b820191906000526020600020905b81548152906001019060200180831161212257829003601f168201915b5050505050905090565b606060006010541161215a57600080fd5b6701ea4644d301000034146121d7576040517f08c379a00000000000000000000000000000000000000000000000000000000081526004018080602001828103825260148152602001807f636c61696d696e6720302e31333820657468657200000000000000000000000081525060200191505060405180910390fd5b601160009054906101000a900460ff16156121fc576000600f54116121fb57600080fd5b5b600060029050606061221084836002613135565b905061221a61207e565b73ffffffffffffffffffffffffffffffffffffffff166108fc6701ea4644d30100009081150290604051600060405180830381858888f19350505050158015612267573d6000803e3d6000fd5b508092505050919050565b61227a612d28565b73ffffffffffffffffffffffffffffffffffffffff168273ffffffffffffffffffffffffffffffffffffffff16141561231b576040517f08c379a00000000000000000000000000000000000000000000000000000000081526004018080602001828103825260198152602001807f4552433732313a20617070726f766520746f2063616c6c65720000000000000081525060200191505060405180910390fd5b8060066000612328612d28565b73ffffffffffffffffffffffffffffffffffffffff1673ffffffffffffffffffffffffffffffffffffffff16815260200190815260200160002060008473ffffffffffffffffffffffffffffffffffffffff1673ffffffffffffffffffffffffffffffffffffffff16815260200190815260200160002060006101000a81548160ff0219169083151502179055508173ffffffffffffffffffffffffffffffffffffffff166123d5612d28565b73ffffffffffffffffffffffffffffffffffffffff167f17307eab39ab6107e8899845ad3d59bd9653f200f220920489ca2b5937696c318360405180821515815260200191505060405180910390a35050565b612439612433612d28565b83612dfe565b61248e576040517f08c379a00000000000000000000000000000000000000000000000000000000081526004018080602001828103825260318152602001806144886031913960400191505060405180910390fd5b61249a84848484613261565b50505050565b60606124ab82612d0b565b612500576040517f08c379a000000000000000000000000000000000000000000000000000000000815260040180806020018281038252602f815260200180614438602f913960400191505060405180910390fd5b6060600960008481526020019081526020016000208054600181600116156101000203166002900480601f0160208091040260200160405190810160405280929190818152602001828054600181600116156101000203166002900480156125a95780601f1061257e576101008083540402835291602001916125a9565b820191906000526020600020905b81548152906001019060200180831161258c57829003601f168201915b5050505050905060606125ba611cee565b90506000815114156125d057819250505061276c565b6000825111156126a15780826040516020018083805190602001908083835b6020831061261257805182526020820191506020810190506020830392506125ef565b6001836020036101000a03801982511681845116808217855250505050505090500182805190602001908083835b602083106126635780518252602082019150602081019050602083039250612640565b6001836020036101000a038019825116818451168082178552505050505050905001925050506040516020818303038152906040529250505061276c565b806126ab856132d3565b6040516020018083805190602001908083835b602083106126e157805182526020820191506020810190506020830392506126be565b6001836020036101000a03801982511681845116808217855250505050505090500182805190602001908083835b60208310612732578051825260208201915060208101905060208303925061270f565b6001836020036101000a03801982511681845116808217855250505050505090500192505050604051602081830303815290604052925050505b919050565b606060006010541161278257600080fd5b671326beb03e0a000034146127ff576040517f08c379a00000000000000000000000000000000000000000000000000000000081526004018080602001828103825260138152602001807f636c61696d696e6720302e32302065746865720000000000000000000000000081525060200191505060405180910390fd5b60001515601160009054906101000a900460ff1615151461281f57600080fd5b600060029050606061283384836014613135565b905061283d61207e565b73ffffffffffffffffffffffffffffffffffffffff166108fc671326beb03e0a00009081150290604051600060405180830381858888f1935050505015801561288a573d6000803e3d6000fd5b508092505050919050565b6000600660008473ffffffffffffffffffffffffffffffffffffffff1673ffffffffffffffffffffffffffffffffffffffff16815260200190815260200160002060008373ffffffffffffffffffffffffffffffffffffffff1673ffffffffffffffffffffffffffffffffffffffff16815260200190815260200160002060009054906101000a900460ff16905092915050565b612931612d28565b73ffffffffffffffffffffffffffffffffffffffff1661294f61207e565b73ffffffffffffffffffffffffffffffffffffffff16146129d8576040517f08c379a00000000000000000000000000000000000000000000000000000000081526004018080602001828103825260208152602001807f4f776e61626c653a2063616c6c6572206973206e6f7420746865206f776e657281525060200191505060405180910390fd5b600073ffffffffffffffffffffffffffffffffffffffff168173ffffffffffffffffffffffffffffffffffffffff161415612a5e576040517f08c379a000000000000000000000000000000000000000000000000000000000815260040180806020018281038252602681526020018061426e6026913960400191505060405180910390fd5b8073ffffffffffffffffffffffffffffffffffffffff1660008054906101000a900473ffffffffffffffffffffffffffffffffffffffff1673ffffffffffffffffffffffffffffffffffffffff167f8be0079c531659141344cd1fd0a4f28419497f9722a3daafe3b4186f6b6457e060405160405180910390a3806000806101000a81548173ffffffffffffffffffffffffffffffffffffffff021916908373ffffffffffffffffffffffffffffffffffffffff16021790555050565b60008060105411612b2b57600080fd5b66f52322698080003414612ba7576040517f08c379a00000000000000000000000000000000000000000000000000000000081526004018080602001828103825260148152602001807f636c61696d696e6720302e30363920657468657200000000000000000000000081525060200191505060405180910390fd5b601160009054906101000a900460ff1615612bcc576000600f5411612bcb57600080fd5b5b6000600290506000612bde848361341a565b9050612be861207e565b73ffffffffffffffffffffffffffffffffffffffff166108fc66f52322698080009081150290604051600060405180830381858888f19350505050158015612c34573d6000803e3d6000fd5b508092505050919050565b612c47612d28565b73ffffffffffffffffffffffffffffffffffffffff16612c6561207e565b73ffffffffffffffffffffffffffffffffffffffff1614612cee576040517f08c379a00000000000000000000000000000000000000000000000000000000081526004018080602001828103825260208152602001807f4f776e61626c653a2063616c6c6572206973206e6f7420746865206f776e657281525060200191505060405180910390fd5b6000601160006101000a81548160ff021916908315150217905550565b6000612d2182600361348090919063ffffffff16565b9050919050565b600033905090565b816005600083815260200190815260200160002060006101000a81548173ffffffffffffffffffffffffffffffffffffffff021916908373ffffffffffffffffffffffffffffffffffffffff160217905550808273ffffffffffffffffffffffffffffffffffffffff16612da383611b25565b73ffffffffffffffffffffffffffffffffffffffff167f8c5be1e5ebec7d5bd14f71427d1e84f3dd0314c0f7b2291e5b200ac8c7c3b92560405160405180910390a45050565b6000612df78260000161349a565b9050919050565b6000612e0982612d0b565b612e5e576040517f08c379a000000000000000000000000000000000000000000000000000000000815260040180806020018281038252602c8152602001806142de602c913960400191505060405180910390fd5b6000612e6983611b25565b90508073ffffffffffffffffffffffffffffffffffffffff168473ffffffffffffffffffffffffffffffffffffffff161480612ed857508373ffffffffffffffffffffffffffffffffffffffff16612ec0846113d6565b73ffffffffffffffffffffffffffffffffffffffff16145b80612ee95750612ee88185612895565b5b91505092915050565b8273ffffffffffffffffffffffffffffffffffffffff16612f1282611b25565b73ffffffffffffffffffffffffffffffffffffffff1614612f7e576040517f08c379a000000000000000000000000000000000000000000000000000000000815260040180806020018281038252602981526020018061440f6029913960400191505060405180910390fd5b600073ffffffffffffffffffffffffffffffffffffffff168273ffffffffffffffffffffffffffffffffffffffff161415613004576040517f08c379a00000000000000000000000000000000000000000000000000000000081526004018080602001828103825260248152602001806142946024913960400191505060405180910390fd5b61300f8383836134ab565b61301a600082612d30565b61306b81600260008673ffffffffffffffffffffffffffffffffffffffff1673ffffffffffffffffffffffffffffffffffffffff1681526020019081526020016000206134b090919063ffffffff16565b506130bd81600260008573ffffffffffffffffffffffffffffffffffffffff1673ffffffffffffffffffffffffffffffffffffffff1681526020019081526020016000206134ca90919063ffffffff16565b506130d4818360036134e49092919063ffffffff16565b50808273ffffffffffffffffffffffffffffffffffffffff168473ffffffffffffffffffffffffffffffffffffffff167fddf252ad1be2c89b69c2b068fc378daa952ba7f163c4a11628f55a4df523b3ef60405160405180910390a4505050565b6060808267ffffffffffffffff8111801561314f57600080fd5b5060405190808252806020026020018201604052801561317e5781602001602082028036833780820191505090505b50905060005b838110156131c1576000613198878761341a565b9050808383815181106131a757fe5b602002602001018181525050508080600101915050613184565b50809150509392505050565b60006131dc8360000183613519565b60001c905092915050565b6000806000806131fa866000018661359c565b915091508160001c8160001c9350935050509250929050565b80600a908051906020019061322992919061417c565b5050565b6000613240846000018460001b84613635565b60001c90509392505050565b600061325a8260000161372b565b9050919050565b61326c848484612ef2565b6132788484848461373c565b6132cd576040517f08c379a000000000000000000000000000000000000000000000000000000000815260040180806020018281038252603281526020018061423c6032913960400191505060405180910390fd5b50505050565b6060600082141561331b576040518060400160405280600181526020017f30000000000000000000000000000000000000000000000000000000000000008152509050613415565b600082905060005b60008214613345578080600101915050600a828161333d57fe5b049150613323565b60608167ffffffffffffffff8111801561335e57600080fd5b506040519080825280601f01601f1916602001820160405280156133915781602001600182028036833780820191505090505b50905060006001830390508593505b6000841461340d57600a84816133b257fe5b0660300160f81b828280600190039350815181106133cc57fe5b60200101907effffffffffffffffffffffffffffffffffffffffffffffffffffffffffffff1916908160001a905350600a848161340557fe5b0493506133a0565b819450505050505b919050565b60006001600d5401600d819055506000600d5490506134393382613955565b6134438185613973565b601160009054906101000a900460ff1615613469576001600f5403600f81905550613476565b6001601054036010819055505b8091505092915050565b6000613492836000018360001b6139fd565b905092915050565b600081600001805490509050919050565b505050565b60006134c2836000018360001b613a20565b905092915050565b60006134dc836000018360001b613b08565b905092915050565b6000613510846000018460001b8473ffffffffffffffffffffffffffffffffffffffff1660001b613b78565b90509392505050565b60008183600001805490501161357a576040517f08c379a000000000000000000000000000000000000000000000000000000000815260040180806020018281038252602281526020018061421a6022913960400191505060405180910390fd5b82600001828154811061358957fe5b9060005260206000200154905092915050565b600080828460000180549050116135fe576040517f08c379a00000000000000000000000000000000000000000000000000000000081526004018080602001828103825260228152602001806143956022913960400191505060405180910390fd5b600084600001848154811061360f57fe5b906000526020600020906002020190508060000154816001015492509250509250929050565b600080846001016000858152602001908152602001600020549050600081141583906136fc576040517f08c379a00000000000000000000000000000000000000000000000000000000081526004018080602001828103825283818151815260200191508051906020019080838360005b838110156136c15780820151818401526020810190506136a6565b50505050905090810190601f1680156136ee5780820380516001836020036101000a031916815260200191505b509250505060405180910390fd5b5084600001600182038154811061370f57fe5b9060005260206000209060020201600101549150509392505050565b600081600001805490509050919050565b600061375d8473ffffffffffffffffffffffffffffffffffffffff16613c54565b61376a576001905061394d565b60606138d463150b7a0260e01b61377f612d28565b888787604051602401808573ffffffffffffffffffffffffffffffffffffffff1681526020018473ffffffffffffffffffffffffffffffffffffffff16815260200183815260200180602001828103825283818151815260200191508051906020019080838360005b838110156138035780820151818401526020810190506137e8565b50505050905090810190601f1680156138305780820380516001836020036101000a031916815260200191505b5095505050505050604051602081830303815290604052907bffffffffffffffffffffffffffffffffffffffffffffffffffffffff19166020820180517bffffffffffffffffffffffffffffffffffffffffffffffffffffffff838183161783525050505060405180606001604052806032815260200161423c603291398773ffffffffffffffffffffffffffffffffffffffff16613c679092919063ffffffff16565b905060008180602001905160208110156138ed57600080fd5b8101908080519060200190929190505050905063150b7a0260e01b7bffffffffffffffffffffffffffffffffffffffffffffffffffffffff1916817bffffffffffffffffffffffffffffffffffffffffffffffffffffffff191614925050505b949350505050565b61396f828260405180602001604052806000815250613c7f565b5050565b61397c82612d0b565b6139d1576040517f08c379a000000000000000000000000000000000000000000000000000000000815260040180806020018281038252602c8152602001806143e3602c913960400191505060405180910390fd5b806009600084815260200190815260200160002090805190602001906139f892919061417c565b505050565b600080836001016000848152602001908152602001600020541415905092915050565b60008083600101600084815260200190815260200160002054905060008114613afc5760006001820390506000600186600001805490500390506000866000018281548110613a6b57fe5b9060005260206000200154905080876000018481548110613a8857fe5b9060005260206000200181905550600183018760010160008381526020019081526020016000208190555086600001805480613ac057fe5b60019003818190600052602060002001600090559055866001016000878152602001908152602001600020600090556001945050505050613b02565b60009150505b92915050565b6000613b148383613cf0565b613b6d578260000182908060018154018082558091505060019003906000526020600020016000909190919091505582600001805490508360010160008481526020019081526020016000208190555060019050613b72565b600090505b92915050565b6000808460010160008581526020019081526020016000205490506000811415613c1f57846000016040518060400160405280868152602001858152509080600181540180825580915050600190039060005260206000209060020201600090919091909150600082015181600001556020820151816001015550508460000180549050856001016000868152602001908152602001600020819055506001915050613c4d565b82856000016001830381548110613c3257fe5b90600052602060002090600202016001018190555060009150505b9392505050565b600080823b905060008111915050919050565b6060613c768484600085613d13565b90509392505050565b613c898383613ebc565b613c96600084848461373c565b613ceb576040517f08c379a000000000000000000000000000000000000000000000000000000000815260040180806020018281038252603281526020018061423c6032913960400191505060405180910390fd5b505050565b600080836001016000848152602001908152602001600020541415905092915050565b606082471015613d6e576040517f08c379a00000000000000000000000000000000000000000000000000000000081526004018080602001828103825260268152602001806142b86026913960400191505060405180910390fd5b613d7785613c54565b613de9576040517f08c379a000000000000000000000000000000000000000000000000000000000815260040180806020018281038252601d8152602001807f416464726573733a2063616c6c20746f206e6f6e2d636f6e747261637400000081525060200191505060405180910390fd5b600060608673ffffffffffffffffffffffffffffffffffffffff1685876040518082805190602001908083835b60208310613e395780518252602082019150602081019050602083039250613e16565b6001836020036101000a03801982511681845116808217855250505050505090500191505060006040518083038185875af1925050503d8060008114613e9b576040519150601f19603f3d011682016040523d82523d6000602084013e613ea0565b606091505b5091509150613eb08282866140b0565b92505050949350505050565b600073ffffffffffffffffffffffffffffffffffffffff168273ffffffffffffffffffffffffffffffffffffffff161415613f5f576040517f08c379a00000000000000000000000000000000000000000000000000000000081526004018080602001828103825260208152602001807f4552433732313a206d696e7420746f20746865207a65726f206164647265737381525060200191505060405180910390fd5b613f6881612d0b565b15613fdb576040517f08c379a000000000000000000000000000000000000000000000000000000000815260040180806020018281038252601c8152602001807f4552433732313a20746f6b656e20616c7265616479206d696e7465640000000081525060200191505060405180910390fd5b613fe7600083836134ab565b61403881600260008573ffffffffffffffffffffffffffffffffffffffff1673ffffffffffffffffffffffffffffffffffffffff1681526020019081526020016000206134ca90919063ffffffff16565b5061404f818360036134e49092919063ffffffff16565b50808273ffffffffffffffffffffffffffffffffffffffff16600073ffffffffffffffffffffffffffffffffffffffff167fddf252ad1be2c89b69c2b068fc378daa952ba7f163c4a11628f55a4df523b3ef60405160405180910390a45050565b606083156140c057829050614175565b6000835111156140d35782518084602001fd5b816040517f08c379a00000000000000000000000000000000000000000000000000000000081526004018080602001828103825283818151815260200191508051906020019080838360005b8381101561413a57808201518184015260208101905061411f565b50505050905090810190601f1680156141675780820380516001836020036101000a031916815260200191505b509250505060405180910390fd5b9392505050565b828054600181600116156101000203166002900490600052602060002090601f016020900481019282601f106141bd57805160ff19168380011785556141eb565b828001600101855582156141eb579182015b828111156141ea5782518255916020019190600101906141cf565b5b5090506141f891906141fc565b5090565b5b808211156142155760008160009055506001016141fd565b509056fe456e756d657261626c655365743a20696e646578206f7574206f6620626f756e64734552433732313a207472616e7366657220746f206e6f6e20455243373231526563656976657220696d706c656d656e7465724f776e61626c653a206e6577206f776e657220697320746865207a65726f20616464726573734552433732313a207472616e7366657220746f20746865207a65726f2061646472657373416464726573733a20696e73756666696369656e742062616c616e636520666f722063616c6c4552433732313a206f70657261746f7220717565727920666f72206e6f6e6578697374656e7420746f6b656e4552433732313a20617070726f76652063616c6c6572206973206e6f74206f776e6572206e6f7220617070726f76656420666f7220616c6c4552433732313a2062616c616e636520717565727920666f7220746865207a65726f20616464726573734552433732313a206f776e657220717565727920666f72206e6f6e6578697374656e7420746f6b656e456e756d657261626c654d61703a20696e646578206f7574206f6620626f756e64734552433732313a20617070726f76656420717565727920666f72206e6f6e6578697374656e7420746f6b656e4552433732314d657461646174613a2055524920736574206f66206e6f6e6578697374656e7420746f6b656e4552433732313a207472616e73666572206f6620746f6b656e2074686174206973206e6f74206f776e4552433732314d657461646174613a2055524920717565727920666f72206e6f6e6578697374656e7420746f6b656e4552433732313a20617070726f76616c20746f2063757272656e74206f776e65724552433732313a207472616e736665722063616c6c6572206973206e6f74206f776e6572206e6f7220617070726f766564a26469706673582212206350508ab5fdf9ba745527fbf1271973ffa9a3577550814bfb8ec54c279ad08f64736f6c63430007000033",
  "immutableReferences": {},
  "source": "// SPDX-License-Identifier: MIT\npragma solidity >=0.4.22 <0.9.0;\n\nimport \"@openzeppelin/contracts/access/Ownable.sol\";\nimport \"@openzeppelin/contracts/token/ERC721/ERC721.sol\";\ncontract Bear is Ownable, ERC721 {\n\n    struct Metadata {\n        string URI;\n        uint256 rarity;\n    }\n\n\n    mapping(uint256 => Metadata) id_to_bear_token;\n\n    string private _currentBaseURI;\n    uint256 private _tokenIds = 0;\n\n\n    uint256 private MAX_GIVE_AWAY = 120;\n    uint256 private PRE_SALE = 1000;\n    uint256 private MAX_NFTS =10000;\n\n    bool private PRE_SALE_ON;\n\n\n    constructor() ERC721(\"Polar Pals\", \"PALS\") {\n        // mintBatch('test', 2, MAX_GIVE_AWAY);\n\n    }\n\n\n    function startPreSale() public onlyOwner {\n            PRE_SALE_ON = true;\n    }\n\n    function stopPreSale() public onlyOwner {\n            PRE_SALE_ON = false;\n    }\n\n    function getCurrentNFTAmount() public  returns (uint256){\n        return MAX_NFTS;\n    }\n\n    function getPreSaleNFTAmount() public   returns (uint256){\n        return PRE_SALE;\n    }\n\n    function setBaseURI(string memory baseURI) public onlyOwner {\n        _currentBaseURI = baseURI;\n        _setBaseURI(_currentBaseURI);\n    }\n\n    function _baseURI() public view virtual  returns (string memory) {\n        return _currentBaseURI;\n    }\n\n    function mintNFT(string memory tokenURI, uint256 rarity) internal returns (uint256) {\n       _tokenIds = _tokenIds + 1;\n       uint256 newItemId = _tokenIds;\n       _safeMint(msg.sender, newItemId);\n       _setTokenURI(newItemId, tokenURI );\n\n        if(PRE_SALE_ON){\n             PRE_SALE = PRE_SALE -1 ;\n        }\n\n       else MAX_NFTS = MAX_NFTS - 1;\n       return newItemId;\n   }\n\n    function claim(string memory tokenURI) external payable returns (uint256){\n        require(MAX_NFTS > 0);\n        require(msg.value == 0.069 ether, \"claiming 0.069 ether\");\n        if(PRE_SALE_ON){\n            require(PRE_SALE>0);\n        }\n        uint256 rarity = 2; // This should generated based on the probablity map \n        uint256 id = mintNFT(tokenURI,rarity);\n        payable(owner()).transfer(0.069 ether);\n        return id;\n    }\n\n    function claim_2(string memory tokenURI) external payable returns (uint256[] memory){\n        require(MAX_NFTS > 0);\n        require(msg.value == 0.138 ether, \"claiming 0.138 ether\");\n          if(PRE_SALE_ON){\n            require(PRE_SALE>0);\n        }\n        uint256 rarity = 2; // This should generated based on the probablity map \n        uint256[] memory id = mintBatch(tokenURI,rarity,2);\n        payable(owner()).transfer(0.138 ether);\n        return id;\n    }\n\n    function claim_5(string memory tokenURI) external payable returns (uint256[] memory){\n        require(MAX_NFTS > 0);\n        require(msg.value == 0.345 ether, \"claiming 0.345 ether\");\n          if(PRE_SALE_ON){\n            require(PRE_SALE>0);\n        }\n        uint256 rarity = 2; // This should generated based on the probablity map \n        uint256[] memory id = mintBatch(tokenURI,rarity,5);\n        payable(owner()).transfer(0.345 ether);\n        return id;\n    }\n\n\n    function claim_10(string memory tokenURI) external payable returns (uint256[] memory){\n        require(MAX_NFTS > 0);\n        require(msg.value == 0.69 ether, \"claiming 0.69 ether\");\n          if(PRE_SALE_ON){\n            require(PRE_SALE>0,\"Out of PRE_SALE Tokens\");\n        }\n        uint256 rarity = 2; // This should generated based on the probablity map \n        uint256[] memory id = mintBatch(tokenURI,rarity,10);\n        payable(owner()).transfer(0.69 ether);\n        return id;\n    }\n\n\n    function claim_20(string memory tokenURI) external payable returns (uint256[] memory){\n        require(MAX_NFTS > 0);\n        require(msg.value == 1.38 ether, \"claiming 0.20 ether\");\n        require(PRE_SALE_ON == false);\n        uint256 rarity = 2; // This should generated based on the probablity map \n        uint256[] memory id = mintBatch(tokenURI,rarity,20);\n        payable(owner()).transfer(1.38  ether);\n        return id;\n    }\n\n\n\n    function claim_10_GiveAway(string memory tokenURI) onlyOwner external returns (uint256[] memory){\n        require(MAX_NFTS > 0);\n        uint256 rarity = 2; // This should generated based on the probablity map \n        uint256[] memory id = mintBatch(tokenURI,rarity,10);\n        return id;\n    }\n\n\n    function mintBatch(string memory tokenURI,uint256 rarity,uint256 numberOfTokens) private returns (uint256[] memory){\n        uint256[] memory NFT_ID_ARRAY = new uint256[](numberOfTokens);\n        for(uint temp = 0; temp < numberOfTokens; temp++) {\n             uint256 id = mintNFT(tokenURI,rarity);\n             NFT_ID_ARRAY[temp] = id;   \n        }\n\n        return NFT_ID_ARRAY;\n    }\n\n}",
  "sourcePath": "/Users/teancum/MichaelJordan/bearNFT/contracts/Bear.sol",
  "compiler": {
    "name": "solc",
    "version": "0.7.0+commit.9e61f92b.Emscripten.clang"
  },
  "schemaVersion": "3.4.1",
  "updatedAt": "2021-08-29T00:52:50.133Z",
  "networkType": "ethereum",
  "devdoc": {
    "kind": "dev",
    "methods": {
      "approve(address,uint256)": {
        "details": "See {IERC721-approve}."
      },
      "balanceOf(address)": {
        "details": "See {IERC721-balanceOf}."
      },
      "baseURI()": {
        "details": "Returns the base URI set via {_setBaseURI}. This will be automatically added as a prefix in {tokenURI} to each token's URI, or to the token ID if no specific URI is set for that token ID."
      },
      "getApproved(uint256)": {
        "details": "See {IERC721-getApproved}."
      },
      "isApprovedForAll(address,address)": {
        "details": "See {IERC721-isApprovedForAll}."
      },
      "name()": {
        "details": "See {IERC721Metadata-name}."
      },
      "owner()": {
        "details": "Returns the address of the current owner."
      },
      "ownerOf(uint256)": {
        "details": "See {IERC721-ownerOf}."
      },
      "renounceOwnership()": {
        "details": "Leaves the contract without owner. It will not be possible to call `onlyOwner` functions anymore. Can only be called by the current owner. NOTE: Renouncing ownership will leave the contract without an owner, thereby removing any functionality that is only available to the owner."
      },
      "safeTransferFrom(address,address,uint256)": {
        "details": "See {IERC721-safeTransferFrom}."
      },
      "safeTransferFrom(address,address,uint256,bytes)": {
        "details": "See {IERC721-safeTransferFrom}."
      },
      "setApprovalForAll(address,bool)": {
        "details": "See {IERC721-setApprovalForAll}."
      },
      "supportsInterface(bytes4)": {
        "details": "See {IERC165-supportsInterface}. Time complexity O(1), guaranteed to always use less than 30 000 gas."
      },
      "symbol()": {
        "details": "See {IERC721Metadata-symbol}."
      },
      "tokenByIndex(uint256)": {
        "details": "See {IERC721Enumerable-tokenByIndex}."
      },
      "tokenOfOwnerByIndex(address,uint256)": {
        "details": "See {IERC721Enumerable-tokenOfOwnerByIndex}."
      },
      "tokenURI(uint256)": {
        "details": "See {IERC721Metadata-tokenURI}."
      },
      "totalSupply()": {
        "details": "See {IERC721Enumerable-totalSupply}."
      },
      "transferFrom(address,address,uint256)": {
        "details": "See {IERC721-transferFrom}."
      },
      "transferOwnership(address)": {
        "details": "Transfers ownership of the contract to a new account (`newOwner`). Can only be called by the current owner."
      }
    },
    "version": 1
  },
  "userdoc": {
    "kind": "user",
    "methods": {},
    "version": 1
  }
}