{
  "contractName": "Bear",
  "abi": [
    {
      "inputs": [],
      "stateMutability": "nonpayable",
      "type": "constructor"
    },
    {
      "anonymous": false,
      "inputs": [
        {
          "indexed": true,
          "internalType": "address",
          "name": "owner",
          "type": "address"
        },
        {
          "indexed": true,
          "internalType": "address",
          "name": "approved",
          "type": "address"
        },
        {
          "indexed": true,
          "internalType": "uint256",
          "name": "tokenId",
          "type": "uint256"
        }
      ],
      "name": "Approval",
      "type": "event"
    },
    {
      "anonymous": false,
      "inputs": [
        {
          "indexed": true,
          "internalType": "address",
          "name": "owner",
          "type": "address"
        },
        {
          "indexed": true,
          "internalType": "address",
          "name": "operator",
          "type": "address"
        },
        {
          "indexed": false,
          "internalType": "bool",
          "name": "approved",
          "type": "bool"
        }
      ],
      "name": "ApprovalForAll",
      "type": "event"
    },
    {
      "anonymous": false,
      "inputs": [
        {
          "indexed": true,
          "internalType": "address",
          "name": "previousOwner",
          "type": "address"
        },
        {
          "indexed": true,
          "internalType": "address",
          "name": "newOwner",
          "type": "address"
        }
      ],
      "name": "OwnershipTransferred",
      "type": "event"
    },
    {
      "anonymous": false,
      "inputs": [
        {
          "indexed": true,
          "internalType": "address",
          "name": "from",
          "type": "address"
        },
        {
          "indexed": true,
          "internalType": "address",
          "name": "to",
          "type": "address"
        },
        {
          "indexed": true,
          "internalType": "uint256",
          "name": "tokenId",
          "type": "uint256"
        }
      ],
      "name": "Transfer",
      "type": "event"
    },
    {
      "inputs": [
        {
          "internalType": "address",
          "name": "to",
          "type": "address"
        },
        {
          "internalType": "uint256",
          "name": "tokenId",
          "type": "uint256"
        }
      ],
      "name": "approve",
      "outputs": [],
      "stateMutability": "nonpayable",
      "type": "function"
    },
    {
      "inputs": [
        {
          "internalType": "address",
          "name": "owner",
          "type": "address"
        }
      ],
      "name": "balanceOf",
      "outputs": [
        {
          "internalType": "uint256",
          "name": "",
          "type": "uint256"
        }
      ],
      "stateMutability": "view",
      "type": "function",
      "constant": true
    },
    {
      "inputs": [],
      "name": "baseURI",
      "outputs": [
        {
          "internalType": "string",
          "name": "",
          "type": "string"
        }
      ],
      "stateMutability": "view",
      "type": "function",
      "constant": true
    },
    {
      "inputs": [
        {
          "internalType": "uint256",
          "name": "tokenId",
          "type": "uint256"
        }
      ],
      "name": "getApproved",
      "outputs": [
        {
          "internalType": "address",
          "name": "",
          "type": "address"
        }
      ],
      "stateMutability": "view",
      "type": "function",
      "constant": true
    },
    {
      "inputs": [
        {
          "internalType": "address",
          "name": "owner",
          "type": "address"
        },
        {
          "internalType": "address",
          "name": "operator",
          "type": "address"
        }
      ],
      "name": "isApprovedForAll",
      "outputs": [
        {
          "internalType": "bool",
          "name": "",
          "type": "bool"
        }
      ],
      "stateMutability": "view",
      "type": "function",
      "constant": true
    },
    {
      "inputs": [],
      "name": "name",
      "outputs": [
        {
          "internalType": "string",
          "name": "",
          "type": "string"
        }
      ],
      "stateMutability": "view",
      "type": "function",
      "constant": true
    },
    {
      "inputs": [],
      "name": "owner",
      "outputs": [
        {
          "internalType": "address",
          "name": "",
          "type": "address"
        }
      ],
      "stateMutability": "view",
      "type": "function",
      "constant": true
    },
    {
      "inputs": [
        {
          "internalType": "uint256",
          "name": "tokenId",
          "type": "uint256"
        }
      ],
      "name": "ownerOf",
      "outputs": [
        {
          "internalType": "address",
          "name": "",
          "type": "address"
        }
      ],
      "stateMutability": "view",
      "type": "function",
      "constant": true
    },
    {
      "inputs": [],
      "name": "renounceOwnership",
      "outputs": [],
      "stateMutability": "nonpayable",
      "type": "function"
    },
    {
      "inputs": [
        {
          "internalType": "address",
          "name": "from",
          "type": "address"
        },
        {
          "internalType": "address",
          "name": "to",
          "type": "address"
        },
        {
          "internalType": "uint256",
          "name": "tokenId",
          "type": "uint256"
        }
      ],
      "name": "safeTransferFrom",
      "outputs": [],
      "stateMutability": "nonpayable",
      "type": "function"
    },
    {
      "inputs": [
        {
          "internalType": "address",
          "name": "from",
          "type": "address"
        },
        {
          "internalType": "address",
          "name": "to",
          "type": "address"
        },
        {
          "internalType": "uint256",
          "name": "tokenId",
          "type": "uint256"
        },
        {
          "internalType": "bytes",
          "name": "_data",
          "type": "bytes"
        }
      ],
      "name": "safeTransferFrom",
      "outputs": [],
      "stateMutability": "nonpayable",
      "type": "function"
    },
    {
      "inputs": [
        {
          "internalType": "address",
          "name": "operator",
          "type": "address"
        },
        {
          "internalType": "bool",
          "name": "approved",
          "type": "bool"
        }
      ],
      "name": "setApprovalForAll",
      "outputs": [],
      "stateMutability": "nonpayable",
      "type": "function"
    },
    {
      "inputs": [
        {
          "internalType": "bytes4",
          "name": "interfaceId",
          "type": "bytes4"
        }
      ],
      "name": "supportsInterface",
      "outputs": [
        {
          "internalType": "bool",
          "name": "",
          "type": "bool"
        }
      ],
      "stateMutability": "view",
      "type": "function",
      "constant": true
    },
    {
      "inputs": [],
      "name": "symbol",
      "outputs": [
        {
          "internalType": "string",
          "name": "",
          "type": "string"
        }
      ],
      "stateMutability": "view",
      "type": "function",
      "constant": true
    },
    {
      "inputs": [
        {
          "internalType": "uint256",
          "name": "index",
          "type": "uint256"
        }
      ],
      "name": "tokenByIndex",
      "outputs": [
        {
          "internalType": "uint256",
          "name": "",
          "type": "uint256"
        }
      ],
      "stateMutability": "view",
      "type": "function",
      "constant": true
    },
    {
      "inputs": [
        {
          "internalType": "address",
          "name": "owner",
          "type": "address"
        },
        {
          "internalType": "uint256",
          "name": "index",
          "type": "uint256"
        }
      ],
      "name": "tokenOfOwnerByIndex",
      "outputs": [
        {
          "internalType": "uint256",
          "name": "",
          "type": "uint256"
        }
      ],
      "stateMutability": "view",
      "type": "function",
      "constant": true
    },
    {
      "inputs": [
        {
          "internalType": "uint256",
          "name": "tokenId",
          "type": "uint256"
        }
      ],
      "name": "tokenURI",
      "outputs": [
        {
          "internalType": "string",
          "name": "",
          "type": "string"
        }
      ],
      "stateMutability": "view",
      "type": "function",
      "constant": true
    },
    {
      "inputs": [],
      "name": "totalSupply",
      "outputs": [
        {
          "internalType": "uint256",
          "name": "",
          "type": "uint256"
        }
      ],
      "stateMutability": "view",
      "type": "function",
      "constant": true
    },
    {
      "inputs": [
        {
          "internalType": "address",
          "name": "from",
          "type": "address"
        },
        {
          "internalType": "address",
          "name": "to",
          "type": "address"
        },
        {
          "internalType": "uint256",
          "name": "tokenId",
          "type": "uint256"
        }
      ],
      "name": "transferFrom",
      "outputs": [],
      "stateMutability": "nonpayable",
      "type": "function"
    },
    {
      "inputs": [
        {
          "internalType": "address",
          "name": "newOwner",
          "type": "address"
        }
      ],
      "name": "transferOwnership",
      "outputs": [],
      "stateMutability": "nonpayable",
      "type": "function"
    },
    {
      "inputs": [],
      "name": "startPreSale",
      "outputs": [],
      "stateMutability": "nonpayable",
      "type": "function"
    },
    {
      "inputs": [],
      "name": "stopPreSale",
      "outputs": [],
      "stateMutability": "nonpayable",
      "type": "function"
    },
    {
      "inputs": [
        {
          "internalType": "string",
          "name": "immutableIPFSBucket_",
          "type": "string"
        }
      ],
      "name": "setImmutableIPFSBucket",
      "outputs": [],
      "stateMutability": "nonpayable",
      "type": "function"
    },
    {
      "inputs": [
        {
          "internalType": "string",
          "name": "mutableIPFSBucket_",
          "type": "string"
        }
      ],
      "name": "setMutableIPFSBucket",
      "outputs": [],
      "stateMutability": "nonpayable",
      "type": "function"
    },
    {
      "inputs": [],
      "name": "getCurrentNFTAmount",
      "outputs": [
        {
          "internalType": "uint256",
          "name": "",
          "type": "uint256"
        }
      ],
      "stateMutability": "nonpayable",
      "type": "function"
    },
    {
      "inputs": [],
      "name": "getPreSaleNFTAmount",
      "outputs": [
        {
          "internalType": "uint256",
          "name": "",
          "type": "uint256"
        }
      ],
      "stateMutability": "nonpayable",
      "type": "function"
    },
    {
      "inputs": [
        {
          "internalType": "string",
          "name": "baseURI",
          "type": "string"
        }
      ],
      "name": "setBaseURI",
      "outputs": [],
      "stateMutability": "nonpayable",
      "type": "function"
    },
    {
      "inputs": [],
      "name": "_baseURI",
      "outputs": [
        {
          "internalType": "string",
          "name": "",
          "type": "string"
        }
      ],
      "stateMutability": "view",
      "type": "function",
      "constant": true
    },
    {
      "inputs": [
        {
          "internalType": "uint256",
          "name": "newItemId",
          "type": "uint256"
        },
        {
          "internalType": "string",
          "name": "tokenURI",
          "type": "string"
        }
      ],
      "name": "setTokenURI",
      "outputs": [],
      "stateMutability": "nonpayable",
      "type": "function"
    },
    {
      "inputs": [
        {
          "internalType": "string",
          "name": "tokenURI",
          "type": "string"
        }
      ],
      "name": "claim",
      "outputs": [
        {
          "internalType": "uint256",
          "name": "",
          "type": "uint256"
        }
      ],
      "stateMutability": "payable",
      "type": "function",
      "payable": true
    },
    {
      "inputs": [
        {
          "internalType": "string",
          "name": "tokenURI",
          "type": "string"
        }
      ],
      "name": "claim_2",
      "outputs": [
        {
          "internalType": "uint256[]",
          "name": "",
          "type": "uint256[]"
        }
      ],
      "stateMutability": "payable",
      "type": "function",
      "payable": true
    },
    {
      "inputs": [
        {
          "internalType": "string",
          "name": "tokenURI",
          "type": "string"
        }
      ],
      "name": "claim_5",
      "outputs": [
        {
          "internalType": "uint256[]",
          "name": "",
          "type": "uint256[]"
        }
      ],
      "stateMutability": "payable",
      "type": "function",
      "payable": true
    },
    {
      "inputs": [
        {
          "internalType": "string",
          "name": "tokenURI",
          "type": "string"
        }
      ],
      "name": "claim_10",
      "outputs": [
        {
          "internalType": "uint256[]",
          "name": "",
          "type": "uint256[]"
        }
      ],
      "stateMutability": "payable",
      "type": "function",
      "payable": true
    },
    {
      "inputs": [
        {
          "internalType": "string",
          "name": "tokenURI",
          "type": "string"
        }
      ],
      "name": "claim_20",
      "outputs": [
        {
          "internalType": "uint256[]",
          "name": "",
          "type": "uint256[]"
        }
      ],
      "stateMutability": "payable",
      "type": "function",
      "payable": true
    },
    {
      "inputs": [
        {
          "internalType": "string",
          "name": "tokenURI",
          "type": "string"
        }
      ],
      "name": "claim_10_GiveAway",
      "outputs": [
        {
          "internalType": "uint256[]",
          "name": "",
          "type": "uint256[]"
        }
      ],
      "stateMutability": "nonpayable",
      "type": "function"
    }
  ],
  "bytecode": "0x60806040526000600d556078600e556103e8600f556123286010553480156200002757600080fd5b506040518060400160405280600a81526020017f506f6c61722050616c73000000000000000000000000000000000000000000008152506040518060400160405280600481526020017f50414c53000000000000000000000000000000000000000000000000000000008152506000620000a66200022460201b60201c565b9050806000806101000a81548173ffffffffffffffffffffffffffffffffffffffff021916908373ffffffffffffffffffffffffffffffffffffffff1602179055508073ffffffffffffffffffffffffffffffffffffffff16600073ffffffffffffffffffffffffffffffffffffffff167f8be0079c531659141344cd1fd0a4f28419497f9722a3daafe3b4186f6b6457e060405160405180910390a3506200015c6301ffc9a760e01b6200022c60201b60201c565b81600790805190602001906200017492919062000505565b5080600890805190602001906200018d92919062000505565b50620001a66380ac58cd60e01b6200022c60201b60201c565b620001be635b5e139f60e01b6200022c60201b60201c565b620001d663780e9d6360e01b6200022c60201b60201c565b50506200021e6040518060400160405280600781526020017f697066733a2f2f000000000000000000000000000000000000000000000000008152506200033560201b60201c565b620005ab565b600033905090565b63ffffffff60e01b817bffffffffffffffffffffffffffffffffffffffffffffffffffffffff19161415620002c9576040517f08c379a000000000000000000000000000000000000000000000000000000000815260040180806020018281038252601c8152602001807f4552433136353a20696e76616c696420696e746572666163652069640000000081525060200191505060405180910390fd5b6001806000837bffffffffffffffffffffffffffffffffffffffffffffffffffffffff19167bffffffffffffffffffffffffffffffffffffffffffffffffffffffff1916815260200190815260200160002060006101000a81548160ff02191690831515021790555050565b620003456200022460201b60201c565b73ffffffffffffffffffffffffffffffffffffffff166200036b620004c060201b60201c565b73ffffffffffffffffffffffffffffffffffffffff1614620003f5576040517f08c379a00000000000000000000000000000000000000000000000000000000081526004018080602001828103825260208152602001807f4f776e61626c653a2063616c6c6572206973206e6f7420746865206f776e657281525060200191505060405180910390fd5b80600c90805190602001906200040d92919062000505565b50620004bd600c8054600181600116156101000203166002900480601f016020809104026020016040519081016040528092919081815260200182805460018160011615610100020316600290048015620004ac5780601f106200048057610100808354040283529160200191620004ac565b820191906000526020600020905b8154815290600101906020018083116200048e57829003601f168201915b5050505050620004e960201b60201c565b50565b60008060009054906101000a900473ffffffffffffffffffffffffffffffffffffffff16905090565b80600a90805190602001906200050192919062000505565b5050565b828054600181600116156101000203166002900490600052602060002090601f016020900481019282601f106200054857805160ff191683800117855562000579565b8280016001018555821562000579579182015b82811115620005785782518255916020019190600101906200055b565b5b5090506200058891906200058c565b5090565b5b80821115620005a75760008160009055506001016200058d565b5090565b614a5b80620005bb6000396000f3fe6080604052600436106102045760003560e01c80636352211e1161011857806397bfe3bd116100a0578063cd46c89e1161006f578063cd46c89e14611281578063e985e9c514611391578063f2fde38b14611418578063f3fe12c914611469578063f8fb33661461153857610204565b806397bfe3bd14610f4e578063a22cb4651461105e578063b88d4fde146110bb578063c87b56dd146111cd57610204565b8063715018a6116100e7578063715018a614610dab578063743976a014610dc257806374aaa5b314610e525780638da5cb5b14610e7d57806395d89b4114610ebe57610204565b80636352211e14610b4157806363f1e0a314610ba65780636c0360eb14610cb657806370a0823114610d4657610204565b80632c1e5b831161019b5780634f6ccce71161016a5780634f6ccce7146108cb57806355dd574c1461091a57806355f804b3146109315780635a01b5f3146109f95780635edf61b514610b1657610204565b80632c1e5b83146106095780632c73c081146106d15780632f745c59146107e157806342842e0e1461085057610204565b8063095ea7b3116101d7578063095ea7b314610436578063162094c41461049157806318160ddd1461056357806323b872dd1461058e57610204565b806301ffc9a71461020957806305be3f381461027957806306fdde0314610341578063081812fc146103d1575b600080fd5b34801561021557600080fd5b506102616004803603602081101561022c57600080fd5b8101908080357bffffffffffffffffffffffffffffffffffffffffffffffffffffffff1916906020019092919050505061154f565b60405180821515815260200191505060405180910390f35b34801561028557600080fd5b5061033f6004803603602081101561029c57600080fd5b81019080803590602001906401000000008111156102b957600080fd5b8201836020820111156102cb57600080fd5b803590602001918460018302840111640100000000831117156102ed57600080fd5b91908080601f016020809104026020016040519081016040528093929190818152602001838380828437600081840152601f19601f8201169050808301925050505050505091929192905050506115b7565b005b34801561034d57600080fd5b506103566116ef565b6040518080602001828103825283818151815260200191508051906020019080838360005b8381101561039657808201518184015260208101905061037b565b50505050905090810190601f1680156103c35780820380516001836020036101000a031916815260200191505b509250505060405180910390f35b3480156103dd57600080fd5b5061040a600480360360208110156103f457600080fd5b8101908080359060200190929190505050611791565b604051808273ffffffffffffffffffffffffffffffffffffffff16815260200191505060405180910390f35b34801561044257600080fd5b5061048f6004803603604081101561045957600080fd5b81019080803573ffffffffffffffffffffffffffffffffffffffff1690602001909291908035906020019092919050505061182c565b005b34801561049d57600080fd5b50610561600480360360408110156104b457600080fd5b8101908080359060200190929190803590602001906401000000008111156104db57600080fd5b8201836020820111156104ed57600080fd5b8035906020019184600183028401116401000000008311171561050f57600080fd5b91908080601f016020809104026020016040519081016040528093929190818152602001838380828437600081840152601f19601f820116905080830192505050505050509192919290505050611970565b005b34801561056f57600080fd5b50610578611a2d565b6040518082815260200191505060405180910390f35b34801561059a57600080fd5b50610607600480360360608110156105b157600080fd5b81019080803573ffffffffffffffffffffffffffffffffffffffff169060200190929190803573ffffffffffffffffffffffffffffffffffffffff16906020019092919080359060200190929190505050611a3e565b005b34801561061557600080fd5b506106cf6004803603602081101561062c57600080fd5b810190808035906020019064010000000081111561064957600080fd5b82018360208201111561065b57600080fd5b8035906020019184600183028401116401000000008311171561067d57600080fd5b91908080601f016020809104026020016040519081016040528093929190818152602001838380828437600081840152601f19601f820116905080830192505050505050509192919290505050611ab4565b005b61078a600480360360208110156106e757600080fd5b810190808035906020019064010000000081111561070457600080fd5b82018360208201111561071657600080fd5b8035906020019184600183028401116401000000008311171561073857600080fd5b91908080601f016020809104026020016040519081016040528093929190818152602001838380828437600081840152601f19601f820116905080830192505050505050509192919290505050611b7d565b6040518080602001828103825283818151815260200191508051906020019060200280838360005b838110156107cd5780820151818401526020810190506107b2565b505050509050019250505060405180910390f35b3480156107ed57600080fd5b5061083a6004803603604081101561080457600080fd5b81019080803573ffffffffffffffffffffffffffffffffffffffff16906020019092919080359060200190929190505050611ca6565b6040518082815260200191505060405180910390f35b34801561085c57600080fd5b506108c96004803603606081101561087357600080fd5b81019080803573ffffffffffffffffffffffffffffffffffffffff169060200190929190803573ffffffffffffffffffffffffffffffffffffffff16906020019092919080359060200190929190505050611d01565b005b3480156108d757600080fd5b50610904600480360360208110156108ee57600080fd5b8101908080359060200190929190505050611d21565b6040518082815260200191505060405180910390f35b34801561092657600080fd5b5061092f611d44565b005b34801561093d57600080fd5b506109f76004803603602081101561095457600080fd5b810190808035906020019064010000000081111561097157600080fd5b82018360208201111561098357600080fd5b803590602001918460018302840111640100000000831117156109a557600080fd5b91908080601f016020809104026020016040519081016040528093929190818152602001838380828437600081840152601f19601f820116905080830192505050505050509192919290505050611e10565b005b348015610a0557600080fd5b50610abf60048036036020811015610a1c57600080fd5b8101908080359060200190640100000000811115610a3957600080fd5b820183602082011115610a4b57600080fd5b80359060200191846001830284011164010000000083111715610a6d57600080fd5b91908080601f016020809104026020016040519081016040528093929190818152602001838380828437600081840152601f19601f820116905080830192505050505050509192919290505050611f7c565b6040518080602001828103825283818151815260200191508051906020019060200280838360005b83811015610b02578082015181840152602081019050610ae7565b505050509050019250505060405180910390f35b348015610b2257600080fd5b50610b2b61205c565b6040518082815260200191505060405180910390f35b348015610b4d57600080fd5b50610b7a60048036036020811015610b6457600080fd5b8101908080359060200190929190505050612066565b604051808273ffffffffffffffffffffffffffffffffffffffff16815260200191505060405180910390f35b610c5f60048036036020811015610bbc57600080fd5b8101908080359060200190640100000000811115610bd957600080fd5b820183602082011115610beb57600080fd5b80359060200191846001830284011164010000000083111715610c0d57600080fd5b91908080601f016020809104026020016040519081016040528093929190818152602001838380828437600081840152601f19601f82011690508083019250505050505050919291929050505061209d565b6040518080602001828103825283818151815260200191508051906020019060200280838360005b83811015610ca2578082015181840152602081019050610c87565b505050509050019250505060405180910390f35b348015610cc257600080fd5b50610ccb61222f565b6040518080602001828103825283818151815260200191508051906020019080838360005b83811015610d0b578082015181840152602081019050610cf0565b50505050905090810190601f168015610d385780820380516001836020036101000a031916815260200191505b509250505060405180910390f35b348015610d5257600080fd5b50610d9560048036036020811015610d6957600080fd5b81019080803573ffffffffffffffffffffffffffffffffffffffff1690602001909291905050506122d1565b6040518082815260200191505060405180910390f35b348015610db757600080fd5b50610dc06123a6565b005b348015610dce57600080fd5b50610dd7612513565b6040518080602001828103825283818151815260200191508051906020019080838360005b83811015610e17578082015181840152602081019050610dfc565b50505050905090810190601f168015610e445780820380516001836020036101000a031916815260200191505b509250505060405180910390f35b348015610e5e57600080fd5b50610e676125b5565b6040518082815260200191505060405180910390f35b348015610e8957600080fd5b50610e926125bf565b604051808273ffffffffffffffffffffffffffffffffffffffff16815260200191505060405180910390f35b348015610eca57600080fd5b50610ed36125e8565b6040518080602001828103825283818151815260200191508051906020019080838360005b83811015610f13578082015181840152602081019050610ef8565b50505050905090810190601f168015610f405780820380516001836020036101000a031916815260200191505b509250505060405180910390f35b61100760048036036020811015610f6457600080fd5b8101908080359060200190640100000000811115610f8157600080fd5b820183602082011115610f9357600080fd5b80359060200191846001830284011164010000000083111715610fb557600080fd5b91908080601f016020809104026020016040519081016040528093929190818152602001838380828437600081840152601f19601f82011690508083019250505050505050919291929050505061268a565b6040518080602001828103825283818151815260200191508051906020019060200280838360005b8381101561104a57808201518184015260208101905061102f565b505050509050019250505060405180910390f35b34801561106a57600080fd5b506110b96004803603604081101561108157600080fd5b81019080803573ffffffffffffffffffffffffffffffffffffffff1690602001909291908035151590602001909291905050506127b3565b005b3480156110c757600080fd5b506111cb600480360360808110156110de57600080fd5b81019080803573ffffffffffffffffffffffffffffffffffffffff169060200190929190803573ffffffffffffffffffffffffffffffffffffffff169060200190929190803590602001909291908035906020019064010000000081111561114557600080fd5b82018360208201111561115757600080fd5b8035906020019184600183028401116401000000008311171561117957600080fd5b91908080601f016020809104026020016040519081016040528093929190818152602001838380828437600081840152601f19601f820116905080830192505050505050509192919290505050612969565b005b3480156111d957600080fd5b50611206600480360360208110156111f057600080fd5b81019080803590602001909291905050506129e1565b6040518080602001828103825283818151815260200191508051906020019080838360005b8381101561124657808201518184015260208101905061122b565b50505050905090810190601f1680156112735780820380516001836020036101000a031916815260200191505b509250505060405180910390f35b61133a6004803603602081101561129757600080fd5b81019080803590602001906401000000008111156112b457600080fd5b8201836020820111156112c657600080fd5b803590602001918460018302840111640100000000831117156112e857600080fd5b91908080601f016020809104026020016040519081016040528093929190818152602001838380828437600081840152601f19601f820116905080830192505050505050509192919290505050612cb2565b6040518080602001828103825283818151815260200191508051906020019060200280838360005b8381101561137d578082015181840152602081019050611362565b505050509050019250505060405180910390f35b34801561139d57600080fd5b50611400600480360360408110156113b457600080fd5b81019080803573ffffffffffffffffffffffffffffffffffffffff169060200190929190803573ffffffffffffffffffffffffffffffffffffffff169060200190929190505050612dd6565b60405180821515815260200191505060405180910390f35b34801561142457600080fd5b506114676004803603602081101561143b57600080fd5b81019080803573ffffffffffffffffffffffffffffffffffffffff169060200190929190505050612e6a565b005b6115226004803603602081101561147f57600080fd5b810190808035906020019064010000000081111561149c57600080fd5b8201836020820111156114ae57600080fd5b803590602001918460018302840111640100000000831117156114d057600080fd5b91908080601f016020809104026020016040519081016040528093929190818152602001838380828437600081840152601f19601f82011690508083019250505050505050919291929050505061305c565b6040518082815260200191505060405180910390f35b34801561154457600080fd5b5061154d613180565b005b600060016000837bffffffffffffffffffffffffffffffffffffffffffffffffffffffff19167bffffffffffffffffffffffffffffffffffffffffffffffffffffffff1916815260200190815260200160002060009054906101000a900460ff169050919050565b6115bf61324c565b73ffffffffffffffffffffffffffffffffffffffff166115dd6125bf565b73ffffffffffffffffffffffffffffffffffffffff1614611666576040517f08c379a00000000000000000000000000000000000000000000000000000000081526004018080602001828103825260208152602001807f4f776e61626c653a2063616c6c6572206973206e6f7420746865206f776e657281525060200191505060405180910390fd5b60006012805460018160011615610100020316600290049050146116d5576040517f08c379a00000000000000000000000000000000000000000000000000000000081526004018080602001828103825260368152602001806147a56036913960400191505060405180910390fd5b80601290805190602001906116eb9291906146b3565b5050565b606060078054600181600116156101000203166002900480601f0160208091040260200160405190810160405280929190818152602001828054600181600116156101000203166002900480156117875780601f1061175c57610100808354040283529160200191611787565b820191906000526020600020905b81548152906001019060200180831161176a57829003601f168201915b5050505050905090565b600061179c82613254565b6117f1576040517f08c379a000000000000000000000000000000000000000000000000000000000815260040180806020018281038252602c815260200180614924602c913960400191505060405180910390fd5b6005600083815260200190815260200160002060009054906101000a900473ffffffffffffffffffffffffffffffffffffffff169050919050565b600061183782612066565b90508073ffffffffffffffffffffffffffffffffffffffff168373ffffffffffffffffffffffffffffffffffffffff1614156118be576040517f08c379a00000000000000000000000000000000000000000000000000000000081526004018080602001828103825260218152602001806149d46021913960400191505060405180910390fd5b8073ffffffffffffffffffffffffffffffffffffffff166118dd61324c565b73ffffffffffffffffffffffffffffffffffffffff16148061190c575061190b8161190661324c565b612dd6565b5b611961576040517f08c379a00000000000000000000000000000000000000000000000000000000081526004018080602001828103825260388152602001806148776038913960400191505060405180910390fd5b61196b8383613271565b505050565b61197861324c565b73ffffffffffffffffffffffffffffffffffffffff166119966125bf565b73ffffffffffffffffffffffffffffffffffffffff1614611a1f576040517f08c379a00000000000000000000000000000000000000000000000000000000081526004018080602001828103825260208152602001807f4f776e61626c653a2063616c6c6572206973206e6f7420746865206f776e657281525060200191505060405180910390fd5b611a29828261332a565b5050565b6000611a3960036133b4565b905090565b611a4f611a4961324c565b826133c9565b611aa4576040517f08c379a00000000000000000000000000000000000000000000000000000000081526004018080602001828103825260318152602001806149f56031913960400191505060405180910390fd5b611aaf8383836134bd565b505050565b611abc61324c565b73ffffffffffffffffffffffffffffffffffffffff16611ada6125bf565b73ffffffffffffffffffffffffffffffffffffffff1614611b63576040517f08c379a00000000000000000000000000000000000000000000000000000000081526004018080602001828103825260208152602001807f4f776e61626c653a2063616c6c6572206973206e6f7420746865206f776e657281525060200191505060405180910390fd5b8060139080519060200190611b799291906146b3565b5050565b6060600060105411611b8e57600080fd5b6704c9afac0f8280003414611c0b576040517f08c379a00000000000000000000000000000000000000000000000000000000081526004018080602001828103825260148152602001807f636c61696d696e6720302e33343520657468657200000000000000000000000081525060200191505060405180910390fd5b601160009054906101000a900460ff1615611c30576000600f5411611c2f57600080fd5b5b6000600290506060611c4484836005613700565b9050611c4e6125bf565b73ffffffffffffffffffffffffffffffffffffffff166108fc6704c9afac0f8280009081150290604051600060405180830381858888f19350505050158015611c9b573d6000803e3d6000fd5b508092505050919050565b6000611cf982600260008673ffffffffffffffffffffffffffffffffffffffff1673ffffffffffffffffffffffffffffffffffffffff16815260200190815260200160002061379890919063ffffffff16565b905092915050565b611d1c83838360405180602001604052806000815250612969565b505050565b600080611d388360036137b290919063ffffffff16565b50905080915050919050565b611d4c61324c565b73ffffffffffffffffffffffffffffffffffffffff16611d6a6125bf565b73ffffffffffffffffffffffffffffffffffffffff1614611df3576040517f08c379a00000000000000000000000000000000000000000000000000000000081526004018080602001828103825260208152602001807f4f776e61626c653a2063616c6c6572206973206e6f7420746865206f776e657281525060200191505060405180910390fd5b6001601160006101000a81548160ff021916908315150217905550565b611e1861324c565b73ffffffffffffffffffffffffffffffffffffffff16611e366125bf565b73ffffffffffffffffffffffffffffffffffffffff1614611ebf576040517f08c379a00000000000000000000000000000000000000000000000000000000081526004018080602001828103825260208152602001807f4f776e61626c653a2063616c6c6572206973206e6f7420746865206f776e657281525060200191505060405180910390fd5b80600c9080519060200190611ed59291906146b3565b50611f79600c8054600181600116156101000203166002900480601f016020809104026020016040519081016040528092919081815260200182805460018160011615610100020316600290048015611f6f5780601f10611f4457610100808354040283529160200191611f6f565b820191906000526020600020905b815481529060010190602001808311611f5257829003601f168201915b50505050506137de565b50565b6060611f8661324c565b73ffffffffffffffffffffffffffffffffffffffff16611fa46125bf565b73ffffffffffffffffffffffffffffffffffffffff161461202d576040517f08c379a00000000000000000000000000000000000000000000000000000000081526004018080602001828103825260208152602001807f4f776e61626c653a2063616c6c6572206973206e6f7420746865206f776e657281525060200191505060405180910390fd5b60006010541161203c57600080fd5b60006002905060606120508483600a613700565b90508092505050919050565b6000601054905090565b6000612096826040518060600160405280602981526020016148d96029913960036137f89092919063ffffffff16565b9050919050565b60606000601054116120ae57600080fd5b6709935f581f050000341461212b576040517f08c379a00000000000000000000000000000000000000000000000000000000081526004018080602001828103825260138152602001807f636c61696d696e6720302e36392065746865720000000000000000000000000081525060200191505060405180910390fd5b601160009054906101000a900460ff16156121b9576000600f54116121b8576040517f08c379a00000000000000000000000000000000000000000000000000000000081526004018080602001828103825260168152602001807f4f7574206f66205052455f53414c4520546f6b656e730000000000000000000081525060200191505060405180910390fd5b5b60006002905060606121cd8483600a613700565b90506121d76125bf565b73ffffffffffffffffffffffffffffffffffffffff166108fc6709935f581f0500009081150290604051600060405180830381858888f19350505050158015612224573d6000803e3d6000fd5b508092505050919050565b6060600a8054600181600116156101000203166002900480601f0160208091040260200160405190810160405280929190818152602001828054600181600116156101000203166002900480156122c75780601f1061229c576101008083540402835291602001916122c7565b820191906000526020600020905b8154815290600101906020018083116122aa57829003601f168201915b5050505050905090565b60008073ffffffffffffffffffffffffffffffffffffffff168273ffffffffffffffffffffffffffffffffffffffff161415612358576040517f08c379a000000000000000000000000000000000000000000000000000000000815260040180806020018281038252602a8152602001806148af602a913960400191505060405180910390fd5b61239f600260008473ffffffffffffffffffffffffffffffffffffffff1673ffffffffffffffffffffffffffffffffffffffff168152602001908152602001600020613817565b9050919050565b6123ae61324c565b73ffffffffffffffffffffffffffffffffffffffff166123cc6125bf565b73ffffffffffffffffffffffffffffffffffffffff1614612455576040517f08c379a00000000000000000000000000000000000000000000000000000000081526004018080602001828103825260208152602001807f4f776e61626c653a2063616c6c6572206973206e6f7420746865206f776e657281525060200191505060405180910390fd5b600073ffffffffffffffffffffffffffffffffffffffff1660008054906101000a900473ffffffffffffffffffffffffffffffffffffffff1673ffffffffffffffffffffffffffffffffffffffff167f8be0079c531659141344cd1fd0a4f28419497f9722a3daafe3b4186f6b6457e060405160405180910390a360008060006101000a81548173ffffffffffffffffffffffffffffffffffffffff021916908373ffffffffffffffffffffffffffffffffffffffff160217905550565b6060600c8054600181600116156101000203166002900480601f0160208091040260200160405190810160405280929190818152602001828054600181600116156101000203166002900480156125ab5780601f10612580576101008083540402835291602001916125ab565b820191906000526020600020905b81548152906001019060200180831161258e57829003601f168201915b5050505050905090565b6000600f54905090565b60008060009054906101000a900473ffffffffffffffffffffffffffffffffffffffff16905090565b606060088054600181600116156101000203166002900480601f0160208091040260200160405190810160405280929190818152602001828054600181600116156101000203166002900480156126805780601f1061265557610100808354040283529160200191612680565b820191906000526020600020905b81548152906001019060200180831161266357829003601f168201915b5050505050905090565b606060006010541161269b57600080fd5b6701ea4644d30100003414612718576040517f08c379a00000000000000000000000000000000000000000000000000000000081526004018080602001828103825260148152602001807f636c61696d696e6720302e31333820657468657200000000000000000000000081525060200191505060405180910390fd5b601160009054906101000a900460ff161561273d576000600f541161273c57600080fd5b5b600060029050606061275184836002613700565b905061275b6125bf565b73ffffffffffffffffffffffffffffffffffffffff166108fc6701ea4644d30100009081150290604051600060405180830381858888f193505050501580156127a8573d6000803e3d6000fd5b508092505050919050565b6127bb61324c565b73ffffffffffffffffffffffffffffffffffffffff168273ffffffffffffffffffffffffffffffffffffffff16141561285c576040517f08c379a00000000000000000000000000000000000000000000000000000000081526004018080602001828103825260198152602001807f4552433732313a20617070726f766520746f2063616c6c65720000000000000081525060200191505060405180910390fd5b806006600061286961324c565b73ffffffffffffffffffffffffffffffffffffffff1673ffffffffffffffffffffffffffffffffffffffff16815260200190815260200160002060008473ffffffffffffffffffffffffffffffffffffffff1673ffffffffffffffffffffffffffffffffffffffff16815260200190815260200160002060006101000a81548160ff0219169083151502179055508173ffffffffffffffffffffffffffffffffffffffff1661291661324c565b73ffffffffffffffffffffffffffffffffffffffff167f17307eab39ab6107e8899845ad3d59bd9653f200f220920489ca2b5937696c318360405180821515815260200191505060405180910390a35050565b61297a61297461324c565b836133c9565b6129cf576040517f08c379a00000000000000000000000000000000000000000000000000000000081526004018080602001828103825260318152602001806149f56031913960400191505060405180910390fd5b6129db8484848461382c565b50505050565b60606129ec82613254565b612a41576040517f08c379a000000000000000000000000000000000000000000000000000000000815260040180806020018281038252602f8152602001806149a5602f913960400191505060405180910390fd5b6060600960008481526020019081526020016000208054600181600116156101000203166002900480601f016020809104026020016040519081016040528092919081815260200182805460018160011615610100020316600290048015612aea5780601f10612abf57610100808354040283529160200191612aea565b820191906000526020600020905b815481529060010190602001808311612acd57829003601f168201915b505050505090506060612afb61222f565b9050600081511415612b11578192505050612cad565b600082511115612be25780826040516020018083805190602001908083835b60208310612b535780518252602082019150602081019050602083039250612b30565b6001836020036101000a03801982511681845116808217855250505050505090500182805190602001908083835b60208310612ba45780518252602082019150602081019050602083039250612b81565b6001836020036101000a0380198251168184511680821785525050505050509050019250505060405160208183030381529060405292505050612cad565b80612bec8561389e565b6040516020018083805190602001908083835b60208310612c225780518252602082019150602081019050602083039250612bff565b6001836020036101000a03801982511681845116808217855250505050505090500182805190602001908083835b60208310612c735780518252602082019150602081019050602083039250612c50565b6001836020036101000a03801982511681845116808217855250505050505090500192505050604051602081830303815290604052925050505b919050565b6060600060105411612cc357600080fd5b671326beb03e0a00003414612d40576040517f08c379a00000000000000000000000000000000000000000000000000000000081526004018080602001828103825260138152602001807f636c61696d696e6720302e32302065746865720000000000000000000000000081525060200191505060405180910390fd5b60001515601160009054906101000a900460ff16151514612d6057600080fd5b6000600290506060612d7484836014613700565b9050612d7e6125bf565b73ffffffffffffffffffffffffffffffffffffffff166108fc671326beb03e0a00009081150290604051600060405180830381858888f19350505050158015612dcb573d6000803e3d6000fd5b508092505050919050565b6000600660008473ffffffffffffffffffffffffffffffffffffffff1673ffffffffffffffffffffffffffffffffffffffff16815260200190815260200160002060008373ffffffffffffffffffffffffffffffffffffffff1673ffffffffffffffffffffffffffffffffffffffff16815260200190815260200160002060009054906101000a900460ff16905092915050565b612e7261324c565b73ffffffffffffffffffffffffffffffffffffffff16612e906125bf565b73ffffffffffffffffffffffffffffffffffffffff1614612f19576040517f08c379a00000000000000000000000000000000000000000000000000000000081526004018080602001828103825260208152602001807f4f776e61626c653a2063616c6c6572206973206e6f7420746865206f776e657281525060200191505060405180910390fd5b600073ffffffffffffffffffffffffffffffffffffffff168173ffffffffffffffffffffffffffffffffffffffff161415612f9f576040517f08c379a00000000000000000000000000000000000000000000000000000000081526004018080602001828103825260268152602001806147db6026913960400191505060405180910390fd5b8073ffffffffffffffffffffffffffffffffffffffff1660008054906101000a900473ffffffffffffffffffffffffffffffffffffffff1673ffffffffffffffffffffffffffffffffffffffff167f8be0079c531659141344cd1fd0a4f28419497f9722a3daafe3b4186f6b6457e060405160405180910390a3806000806101000a81548173ffffffffffffffffffffffffffffffffffffffff021916908373ffffffffffffffffffffffffffffffffffffffff16021790555050565b6000806010541161306c57600080fd5b66f523226980800034146130e8576040517f08c379a00000000000000000000000000000000000000000000000000000000081526004018080602001828103825260148152602001807f636c61696d696e6720302e30363920657468657200000000000000000000000081525060200191505060405180910390fd5b601160009054906101000a900460ff161561310d576000600f541161310c57600080fd5b5b600060029050600061311f84836139e5565b90506131296125bf565b73ffffffffffffffffffffffffffffffffffffffff166108fc66f52322698080009081150290604051600060405180830381858888f19350505050158015613175573d6000803e3d6000fd5b508092505050919050565b61318861324c565b73ffffffffffffffffffffffffffffffffffffffff166131a66125bf565b73ffffffffffffffffffffffffffffffffffffffff161461322f576040517f08c379a00000000000000000000000000000000000000000000000000000000081526004018080602001828103825260208152602001807f4f776e61626c653a2063616c6c6572206973206e6f7420746865206f776e657281525060200191505060405180910390fd5b6000601160006101000a81548160ff021916908315150217905550565b600033905090565b600061326a826003613a4190919063ffffffff16565b9050919050565b816005600083815260200190815260200160002060006101000a81548173ffffffffffffffffffffffffffffffffffffffff021916908373ffffffffffffffffffffffffffffffffffffffff160217905550808273ffffffffffffffffffffffffffffffffffffffff166132e483612066565b73ffffffffffffffffffffffffffffffffffffffff167f8c5be1e5ebec7d5bd14f71427d1e84f3dd0314c0f7b2291e5b200ac8c7c3b92560405160405180910390a45050565b61333382613254565b613388576040517f08c379a000000000000000000000000000000000000000000000000000000000815260040180806020018281038252602c815260200180614950602c913960400191505060405180910390fd5b806009600084815260200190815260200160002090805190602001906133af9291906146b3565b505050565b60006133c282600001613a5b565b9050919050565b60006133d482613254565b613429576040517f08c379a000000000000000000000000000000000000000000000000000000000815260040180806020018281038252602c81526020018061484b602c913960400191505060405180910390fd5b600061343483612066565b90508073ffffffffffffffffffffffffffffffffffffffff168473ffffffffffffffffffffffffffffffffffffffff1614806134a357508373ffffffffffffffffffffffffffffffffffffffff1661348b84611791565b73ffffffffffffffffffffffffffffffffffffffff16145b806134b457506134b38185612dd6565b5b91505092915050565b8273ffffffffffffffffffffffffffffffffffffffff166134dd82612066565b73ffffffffffffffffffffffffffffffffffffffff1614613549576040517f08c379a000000000000000000000000000000000000000000000000000000000815260040180806020018281038252602981526020018061497c6029913960400191505060405180910390fd5b600073ffffffffffffffffffffffffffffffffffffffff168273ffffffffffffffffffffffffffffffffffffffff1614156135cf576040517f08c379a00000000000000000000000000000000000000000000000000000000081526004018080602001828103825260248152602001806148016024913960400191505060405180910390fd5b6135da838383613a6c565b6135e5600082613271565b61363681600260008673ffffffffffffffffffffffffffffffffffffffff1673ffffffffffffffffffffffffffffffffffffffff168152602001908152602001600020613a7190919063ffffffff16565b5061368881600260008573ffffffffffffffffffffffffffffffffffffffff1673ffffffffffffffffffffffffffffffffffffffff168152602001908152602001600020613a8b90919063ffffffff16565b5061369f81836003613aa59092919063ffffffff16565b50808273ffffffffffffffffffffffffffffffffffffffff168473ffffffffffffffffffffffffffffffffffffffff167fddf252ad1be2c89b69c2b068fc378daa952ba7f163c4a11628f55a4df523b3ef60405160405180910390a4505050565b6060808267ffffffffffffffff8111801561371a57600080fd5b506040519080825280602002602001820160405280156137495781602001602082028036833780820191505090505b50905060005b8381101561378c57600061376387876139e5565b90508083838151811061377257fe5b60200260200101818152505050808060010191505061374f565b50809150509392505050565b60006137a78360000183613ada565b60001c905092915050565b6000806000806137c58660000186613b5d565b915091508160001c8160001c9350935050509250929050565b80600a90805190602001906137f49291906146b3565b5050565b600061380b846000018460001b84613bf6565b60001c90509392505050565b600061382582600001613cec565b9050919050565b6138378484846134bd565b61384384848484613cfd565b613898576040517f08c379a00000000000000000000000000000000000000000000000000000000081526004018080602001828103825260328152602001806147736032913960400191505060405180910390fd5b50505050565b606060008214156138e6576040518060400160405280600181526020017f300000000000000000000000000000000000000000000000000000000000000081525090506139e0565b600082905060005b60008214613910578080600101915050600a828161390857fe5b0491506138ee565b60608167ffffffffffffffff8111801561392957600080fd5b506040519080825280601f01601f19166020018201604052801561395c5781602001600182028036833780820191505090505b50905060006001830390508593505b600084146139d857600a848161397d57fe5b0660300160f81b8282806001900393508151811061399757fe5b60200101907effffffffffffffffffffffffffffffffffffffffffffffffffffffffffffff1916908160001a905350600a84816139d057fe5b04935061396b565b819450505050505b919050565b60006001600d5401600d819055506000600d549050613a043382613f16565b601160009054906101000a900460ff1615613a2a576001600f5403600f81905550613a37565b6001601054036010819055505b8091505092915050565b6000613a53836000018360001b613f34565b905092915050565b600081600001805490509050919050565b505050565b6000613a83836000018360001b613f57565b905092915050565b6000613a9d836000018360001b61403f565b905092915050565b6000613ad1846000018460001b8473ffffffffffffffffffffffffffffffffffffffff1660001b6140af565b90509392505050565b600081836000018054905011613b3b576040517f08c379a00000000000000000000000000000000000000000000000000000000081526004018080602001828103825260228152602001806147516022913960400191505060405180910390fd5b826000018281548110613b4a57fe5b9060005260206000200154905092915050565b60008082846000018054905011613bbf576040517f08c379a00000000000000000000000000000000000000000000000000000000081526004018080602001828103825260228152602001806149026022913960400191505060405180910390fd5b6000846000018481548110613bd057fe5b906000526020600020906002020190508060000154816001015492509250509250929050565b60008084600101600085815260200190815260200160002054905060008114158390613cbd576040517f08c379a00000000000000000000000000000000000000000000000000000000081526004018080602001828103825283818151815260200191508051906020019080838360005b83811015613c82578082015181840152602081019050613c67565b50505050905090810190601f168015613caf5780820380516001836020036101000a031916815260200191505b509250505060405180910390fd5b50846000016001820381548110613cd057fe5b9060005260206000209060020201600101549150509392505050565b600081600001805490509050919050565b6000613d1e8473ffffffffffffffffffffffffffffffffffffffff1661418b565b613d2b5760019050613f0e565b6060613e9563150b7a0260e01b613d4061324c565b888787604051602401808573ffffffffffffffffffffffffffffffffffffffff1681526020018473ffffffffffffffffffffffffffffffffffffffff16815260200183815260200180602001828103825283818151815260200191508051906020019080838360005b83811015613dc4578082015181840152602081019050613da9565b50505050905090810190601f168015613df15780820380516001836020036101000a031916815260200191505b5095505050505050604051602081830303815290604052907bffffffffffffffffffffffffffffffffffffffffffffffffffffffff19166020820180517bffffffffffffffffffffffffffffffffffffffffffffffffffffffff8381831617835250505050604051806060016040528060328152602001614773603291398773ffffffffffffffffffffffffffffffffffffffff1661419e9092919063ffffffff16565b90506000818060200190516020811015613eae57600080fd5b8101908080519060200190929190505050905063150b7a0260e01b7bffffffffffffffffffffffffffffffffffffffffffffffffffffffff1916817bffffffffffffffffffffffffffffffffffffffffffffffffffffffff191614925050505b949350505050565b613f308282604051806020016040528060008152506141b6565b5050565b600080836001016000848152602001908152602001600020541415905092915050565b600080836001016000848152602001908152602001600020549050600081146140335760006001820390506000600186600001805490500390506000866000018281548110613fa257fe5b9060005260206000200154905080876000018481548110613fbf57fe5b9060005260206000200181905550600183018760010160008381526020019081526020016000208190555086600001805480613ff757fe5b60019003818190600052602060002001600090559055866001016000878152602001908152602001600020600090556001945050505050614039565b60009150505b92915050565b600061404b8383614227565b6140a45782600001829080600181540180825580915050600190039060005260206000200160009091909190915055826000018054905083600101600084815260200190815260200160002081905550600190506140a9565b600090505b92915050565b600080846001016000858152602001908152602001600020549050600081141561415657846000016040518060400160405280868152602001858152509080600181540180825580915050600190039060005260206000209060020201600090919091909150600082015181600001556020820151816001015550508460000180549050856001016000868152602001908152602001600020819055506001915050614184565b8285600001600183038154811061416957fe5b90600052602060002090600202016001018190555060009150505b9392505050565b600080823b905060008111915050919050565b60606141ad848460008561424a565b90509392505050565b6141c083836143f3565b6141cd6000848484613cfd565b614222576040517f08c379a00000000000000000000000000000000000000000000000000000000081526004018080602001828103825260328152602001806147736032913960400191505060405180910390fd5b505050565b600080836001016000848152602001908152602001600020541415905092915050565b6060824710156142a5576040517f08c379a00000000000000000000000000000000000000000000000000000000081526004018080602001828103825260268152602001806148256026913960400191505060405180910390fd5b6142ae8561418b565b614320576040517f08c379a000000000000000000000000000000000000000000000000000000000815260040180806020018281038252601d8152602001807f416464726573733a2063616c6c20746f206e6f6e2d636f6e747261637400000081525060200191505060405180910390fd5b600060608673ffffffffffffffffffffffffffffffffffffffff1685876040518082805190602001908083835b60208310614370578051825260208201915060208101905060208303925061434d565b6001836020036101000a03801982511681845116808217855250505050505090500191505060006040518083038185875af1925050503d80600081146143d2576040519150601f19603f3d011682016040523d82523d6000602084013e6143d7565b606091505b50915091506143e78282866145e7565b92505050949350505050565b600073ffffffffffffffffffffffffffffffffffffffff168273ffffffffffffffffffffffffffffffffffffffff161415614496576040517f08c379a00000000000000000000000000000000000000000000000000000000081526004018080602001828103825260208152602001807f4552433732313a206d696e7420746f20746865207a65726f206164647265737381525060200191505060405180910390fd5b61449f81613254565b15614512576040517f08c379a000000000000000000000000000000000000000000000000000000000815260040180806020018281038252601c8152602001807f4552433732313a20746f6b656e20616c7265616479206d696e7465640000000081525060200191505060405180910390fd5b61451e60008383613a6c565b61456f81600260008573ffffffffffffffffffffffffffffffffffffffff1673ffffffffffffffffffffffffffffffffffffffff168152602001908152602001600020613a8b90919063ffffffff16565b5061458681836003613aa59092919063ffffffff16565b50808273ffffffffffffffffffffffffffffffffffffffff16600073ffffffffffffffffffffffffffffffffffffffff167fddf252ad1be2c89b69c2b068fc378daa952ba7f163c4a11628f55a4df523b3ef60405160405180910390a45050565b606083156145f7578290506146ac565b60008351111561460a5782518084602001fd5b816040517f08c379a00000000000000000000000000000000000000000000000000000000081526004018080602001828103825283818151815260200191508051906020019080838360005b83811015614671578082015181840152602081019050614656565b50505050905090810190601f16801561469e5780820380516001836020036101000a031916815260200191505b509250505060405180910390fd5b9392505050565b828054600181600116156101000203166002900490600052602060002090601f016020900481019282601f106146f457805160ff1916838001178555614722565b82800160010185558215614722579182015b82811115614721578251825591602001919060010190614706565b5b50905061472f9190614733565b5090565b5b8082111561474c576000816000905550600101614734565b509056fe456e756d657261626c655365743a20696e646578206f7574206f6620626f756e64734552433732313a207472616e7366657220746f206e6f6e20455243373231526563656976657220696d706c656d656e746572546869732049504653206275636b657420697320696d6d7561626c6520616e642063616e206f6e6c7920626520736574206f6e63652e4f776e61626c653a206e6577206f776e657220697320746865207a65726f20616464726573734552433732313a207472616e7366657220746f20746865207a65726f2061646472657373416464726573733a20696e73756666696369656e742062616c616e636520666f722063616c6c4552433732313a206f70657261746f7220717565727920666f72206e6f6e6578697374656e7420746f6b656e4552433732313a20617070726f76652063616c6c6572206973206e6f74206f776e6572206e6f7220617070726f76656420666f7220616c6c4552433732313a2062616c616e636520717565727920666f7220746865207a65726f20616464726573734552433732313a206f776e657220717565727920666f72206e6f6e6578697374656e7420746f6b656e456e756d657261626c654d61703a20696e646578206f7574206f6620626f756e64734552433732313a20617070726f76656420717565727920666f72206e6f6e6578697374656e7420746f6b656e4552433732314d657461646174613a2055524920736574206f66206e6f6e6578697374656e7420746f6b656e4552433732313a207472616e73666572206f6620746f6b656e2074686174206973206e6f74206f776e4552433732314d657461646174613a2055524920717565727920666f72206e6f6e6578697374656e7420746f6b656e4552433732313a20617070726f76616c20746f2063757272656e74206f776e65724552433732313a207472616e736665722063616c6c6572206973206e6f74206f776e6572206e6f7220617070726f766564a264697066735822122091a0a2e962101b51d59f8f6140ffd9dfd4b88d5059e7a57d915a6958c3d6df6f64736f6c63430007000033",
  "source": "// SPDX-License-Identifier: MIT\npragma solidity >=0.4.22 <0.9.0;\nimport \"@openzeppelin/contracts/access/Ownable.sol\";\nimport \"@openzeppelin/contracts/token/ERC721/ERC721.sol\";\ncontract Bear is Ownable, ERC721 {\n    struct Metadata {\n        string URI;\n        uint256 rarity;\n    }\n    mapping(uint256 => Metadata) id_to_bear_token;\n    string private _currentBaseURI;\n    uint256 private _tokenIds = 0;\n    uint256 private MAX_GIVE_AWAY = 120;\n    uint256 private PRE_SALE = 1000;\n    uint256 private MAX_NFTS =9000;\n    bool private PRE_SALE_ON;\n\n\n    string private _immutableIPFSBucket;\n    string private _mutableIPFSBucket;\n    \n    constructor() ERC721(\"Polar Pals\", \"PALS\") {\n        // mintBatch('test', 2, MAX_GIVE_AWAY);\n        setBaseURI('ipfs://');\n    }\n    function startPreSale() public onlyOwner {\n            PRE_SALE_ON = true;\n    }\n    function stopPreSale() public onlyOwner {\n            PRE_SALE_ON = false;\n    }\n\n    function setImmutableIPFSBucket(string memory immutableIPFSBucket_) public onlyOwner {\n        require(bytes(_immutableIPFSBucket).length == 0, \"This IPFS bucket is immuable and can only be set once.\");\n        _immutableIPFSBucket = immutableIPFSBucket_;\n    }\n\n    function setMutableIPFSBucket(string memory mutableIPFSBucket_) public onlyOwner {\n        _mutableIPFSBucket = mutableIPFSBucket_;\n    }\n\n    function getCurrentNFTAmount() public  returns (uint256){\n        return MAX_NFTS;\n    }\n    function getPreSaleNFTAmount() public   returns (uint256){\n        return PRE_SALE;\n    }\n    \n    function setBaseURI(string memory baseURI) public onlyOwner {\n        _currentBaseURI = baseURI;\n        _setBaseURI(_currentBaseURI);\n    }\n    function _baseURI() public view virtual  returns (string memory) {\n        return _currentBaseURI;\n    }\n\n    function  setTokenURI(uint256 newItemId,string memory tokenURI ) external onlyOwner {\n        // require(exists(tokenURI));\n        _setTokenURI(newItemId, tokenURI);\n    }\n\n\n\n    function mintNFT(string memory tokenURI, uint256 rarity) internal returns (uint256) {\n       _tokenIds = _tokenIds + 1;\n       uint256 newItemId = _tokenIds;\n       _safeMint(msg.sender, newItemId);\n        if(PRE_SALE_ON){\n             PRE_SALE = PRE_SALE -1 ;\n        }\n       else MAX_NFTS = MAX_NFTS - 1;\n       return newItemId;\n   }\n    function claim( string memory tokenURI) external payable returns (uint256){\n        require(MAX_NFTS > 0);\n        require(msg.value == 0.069 ether, \"claiming 0.069 ether\");\n        if(PRE_SALE_ON){\n            require(PRE_SALE>0);\n        }\n        uint256 rarity = 2; // This should generated based on the probablity map \n        uint256 id = mintNFT(tokenURI,rarity);\n        payable(owner()).transfer(0.069 ether);\n        return id;\n    }\n    function claim_2( string memory tokenURI) external payable returns (uint256[] memory){\n        require(MAX_NFTS > 0);\n        require(msg.value == 0.138 ether, \"claiming 0.138 ether\");\n          if(PRE_SALE_ON){\n            require(PRE_SALE>0);\n        }\n        uint256 rarity = 2; // This should generated based on the probablity map \n        uint256[] memory id = mintBatch(tokenURI,rarity,2);\n        payable(owner()).transfer(0.138 ether);\n        return id;\n    }\n    function claim_5( string memory tokenURI) external payable returns (uint256[] memory){\n        require(MAX_NFTS > 0);\n        require(msg.value == 0.345 ether, \"claiming 0.345 ether\");\n          if(PRE_SALE_ON){\n            require(PRE_SALE>0);\n        }\n        uint256 rarity = 2; // This should generated based on the probablity map \n        uint256[] memory id = mintBatch(tokenURI,rarity,5);\n        payable(owner()).transfer(0.345 ether);\n        return id;\n    }\n    function claim_10(string memory tokenURI) external payable returns (uint256[] memory){\n        require(MAX_NFTS > 0);\n        require(msg.value == 0.69 ether, \"claiming 0.69 ether\");\n          if(PRE_SALE_ON){\n            require(PRE_SALE>0,\"Out of PRE_SALE Tokens\");\n        }\n        uint256 rarity = 2; // This should generated based on the probablity map \n        uint256[] memory id = mintBatch(tokenURI,rarity,10);\n        payable(owner()).transfer(0.69 ether);\n        return id;\n    }\n    function claim_20(string memory tokenURI) external payable returns (uint256[] memory){\n        require(MAX_NFTS > 0);\n        require(msg.value == 1.38 ether, \"claiming 0.20 ether\");\n        require(PRE_SALE_ON == false);\n        uint256 rarity = 2; // This should generated based on the probablity map \n        uint256[] memory id = mintBatch(tokenURI,rarity,20);\n        payable(owner()).transfer(1.38  ether);\n        return id;\n    }\n    function claim_10_GiveAway(string memory tokenURI) onlyOwner external returns (uint256[] memory){\n        require(MAX_NFTS > 0);\n        uint256 rarity = 2; // This should generated based on the probablity map \n        uint256[] memory id = mintBatch(tokenURI,rarity,10);\n        return id;\n    }\n    function mintBatch( string memory tokenURI,uint256 rarity,uint256 numberOfTokens) private returns (uint256[] memory){\n        uint256[] memory NFT_ID_ARRAY = new uint256[](numberOfTokens);\n        for(uint temp = 0; temp < numberOfTokens; temp++) {\n             uint256 id = mintNFT(tokenURI,rarity);\n             NFT_ID_ARRAY[temp] = id;   \n        }\n        return NFT_ID_ARRAY;\n    }\n    function bytes32ToString(bytes32 _bytes32) internal pure returns (string memory) {\n        uint8 i = 0;\n        while(i < 32 && _bytes32[i] != 0) {\n            i++;\n        }\n        bytes memory bytesArray = new bytes(i);\n        for (i = 0; i < 32 && _bytes32[i] != 0; i++) {\n            bytesArray[i] = _bytes32[i];\n        }\n        return string(bytesArray);\n    }\n\n    \n\n\n}",
  "sourcePath": "/Users/safiullah/Documents/Projects/bear_contracts/contracts/Bear.sol",
  "compiler": {
    "name": "solc",
    "version": "0.7.0+commit.9e61f92b.Emscripten.clang"
  },
  "schemaVersion": "3.0.23",
  "updatedAt": "2021-09-01T13:18:29.096Z",
  "networkType": "ethereum",
  "devdoc": {
    "kind": "dev",
    "methods": {
      "approve(address,uint256)": {
        "details": "See {IERC721-approve}."
      },
      "balanceOf(address)": {
        "details": "See {IERC721-balanceOf}."
      },
      "baseURI()": {
        "details": "Returns the base URI set via {_setBaseURI}. This will be automatically added as a prefix in {tokenURI} to each token's URI, or to the token ID if no specific URI is set for that token ID."
      },
      "getApproved(uint256)": {
        "details": "See {IERC721-getApproved}."
      },
      "isApprovedForAll(address,address)": {
        "details": "See {IERC721-isApprovedForAll}."
      },
      "name()": {
        "details": "See {IERC721Metadata-name}."
      },
      "owner()": {
        "details": "Returns the address of the current owner."
      },
      "ownerOf(uint256)": {
        "details": "See {IERC721-ownerOf}."
      },
      "renounceOwnership()": {
        "details": "Leaves the contract without owner. It will not be possible to call `onlyOwner` functions anymore. Can only be called by the current owner. NOTE: Renouncing ownership will leave the contract without an owner, thereby removing any functionality that is only available to the owner."
      },
      "safeTransferFrom(address,address,uint256)": {
        "details": "See {IERC721-safeTransferFrom}."
      },
      "safeTransferFrom(address,address,uint256,bytes)": {
        "details": "See {IERC721-safeTransferFrom}."
      },
      "setApprovalForAll(address,bool)": {
        "details": "See {IERC721-setApprovalForAll}."
      },
      "supportsInterface(bytes4)": {
        "details": "See {IERC165-supportsInterface}. Time complexity O(1), guaranteed to always use less than 30 000 gas."
      },
      "symbol()": {
        "details": "See {IERC721Metadata-symbol}."
      },
      "tokenByIndex(uint256)": {
        "details": "See {IERC721Enumerable-tokenByIndex}."
      },
      "tokenOfOwnerByIndex(address,uint256)": {
        "details": "See {IERC721Enumerable-tokenOfOwnerByIndex}."
      },
      "tokenURI(uint256)": {
        "details": "See {IERC721Metadata-tokenURI}."
      },
      "totalSupply()": {
        "details": "See {IERC721Enumerable-totalSupply}."
      },
      "transferFrom(address,address,uint256)": {
        "details": "See {IERC721-transferFrom}."
      },
      "transferOwnership(address)": {
        "details": "Transfers ownership of the contract to a new account (`newOwner`). Can only be called by the current owner."
      }
    },
    "version": 1
  },
  "userdoc": {
    "kind": "user",
    "methods": {},
    "version": 1
  }
}